{
  "contractName": "ElectoralPoll",
  "abi": [
    {
      "inputs": [
        {
          "internalType": "address",
          "name": "_chairperson",
          "type": "address"
        }
      ],
      "stateMutability": "nonpayable",
      "type": "constructor"
    },
    {
      "anonymous": false,
      "inputs": [
        {
          "indexed": false,
          "internalType": "uint256",
          "name": "winnerCount",
          "type": "uint256"
        }
      ],
      "name": "ElectionEnded",
      "type": "event"
    },
    {
      "anonymous": false,
      "inputs": [],
      "name": "ElectionStarted",
      "type": "event"
    },
    {
      "anonymous": false,
      "inputs": [
        {
          "indexed": false,
          "internalType": "string",
          "name": "name",
          "type": "string"
        }
      ],
      "name": "NewCandidate",
      "type": "event"
    },
    {
      "anonymous": false,
      "inputs": [
        {
          "indexed": false,
          "internalType": "string",
          "name": "name",
          "type": "string"
        },
        {
          "indexed": false,
          "internalType": "uint256",
          "name": "newCount",
          "type": "uint256"
        }
      ],
      "name": "Voted",
      "type": "event"
    },
    {
      "inputs": [
        {
          "internalType": "uint256",
          "name": "",
          "type": "uint256"
        }
      ],
      "name": "candidates",
      "outputs": [
        {
          "internalType": "string",
          "name": "name",
          "type": "string"
        },
        {
          "internalType": "uint256",
          "name": "voteCount",
          "type": "uint256"
        }
      ],
      "stateMutability": "view",
      "type": "function"
    },
    {
      "inputs": [],
      "name": "status",
      "outputs": [
        {
          "internalType": "enum Status",
          "name": "",
          "type": "uint8"
        }
      ],
      "stateMutability": "view",
      "type": "function"
    },
    {
      "inputs": [
        {
          "internalType": "uint256",
          "name": "",
          "type": "uint256"
        }
      ],
      "name": "winners",
      "outputs": [
        {
          "internalType": "string",
          "name": "name",
          "type": "string"
        },
        {
          "internalType": "uint256",
          "name": "voteCount",
          "type": "uint256"
        }
      ],
      "stateMutability": "view",
      "type": "function"
    },
    {
      "inputs": [],
      "name": "startElection",
      "outputs": [],
      "stateMutability": "nonpayable",
      "type": "function"
    },
    {
      "inputs": [],
      "name": "stopElection",
      "outputs": [],
      "stateMutability": "nonpayable",
      "type": "function"
    },
    {
      "inputs": [
        {
          "internalType": "string",
          "name": "_name",
          "type": "string"
        }
      ],
      "name": "addCandidate",
      "outputs": [],
      "stateMutability": "nonpayable",
      "type": "function"
    },
    {
      "inputs": [
        {
          "internalType": "uint256",
          "name": "_index",
          "type": "uint256"
        },
        {
          "internalType": "string",
          "name": "_aadhaar",
          "type": "string"
        }
      ],
      "name": "delegateVote",
      "outputs": [],
      "stateMutability": "nonpayable",
      "type": "function"
    },
    {
      "inputs": [],
      "name": "getCandidatesLength",
      "outputs": [
        {
          "internalType": "uint256",
          "name": "",
          "type": "uint256"
        }
      ],
      "stateMutability": "view",
      "type": "function"
    },
    {
      "inputs": [],
      "name": "isVoted",
      "outputs": [
        {
          "internalType": "bool",
          "name": "",
          "type": "bool"
        }
      ],
      "stateMutability": "view",
      "type": "function"
    }
  ],
  "bytecode": "0x60a06040523480156200001157600080fd5b5060405162001bf338038062001bf3833981810160405281019062000037919062000109565b8073ffffffffffffffffffffffffffffffffffffffff1660808173ffffffffffffffffffffffffffffffffffffffff168152505060008060006101000a81548160ff021916908360028111156200009357620000926200013b565b5b0217905550506200016a565b600080fd5b600073ffffffffffffffffffffffffffffffffffffffff82169050919050565b6000620000d182620000a4565b9050919050565b620000e381620000c4565b8114620000ef57600080fd5b50565b6000815190506200010381620000d8565b92915050565b6000602082840312156200012257620001216200009f565b5b60006200013284828501620000f2565b91505092915050565b7f4e487b7100000000000000000000000000000000000000000000000000000000600052602160045260246000fd5b608051611a5f62000194600039600081816101c0015281816105690152610b3f0152611a5f6000f3fe608060405234801561001057600080fd5b50600436106100935760003560e01c8063462e91ec11610066578063462e91ec1461010f5780635ef1c1231461012b57806362d73eb8146101475780637b5bc2e414610151578063a2fb11751461016f57610093565b80631859df6514610098578063200d2ed2146100b65780632df9feaa146100d45780633477ee2e146100de575b600080fd5b6100a06101a0565b6040516100ad9190610e08565b60405180910390f35b6100be6101ad565b6040516100cb9190610e9a565b60405180910390f35b6100dc6101be565b005b6100f860048036038101906100f39190610ef5565b6104ab565b604051610106929190610fb2565b60405180910390f35b61012960048036038101906101249190611117565b610567565b005b61014560048036038101906101409190611160565b6107b1565b005b61014f610b3d565b005b610159610cdf565b60405161016691906111d7565b60405180910390f35b61018960048036038101906101849190610ef5565b610d33565b604051610197929190610fb2565b60405180910390f35b6000600180549050905090565b60008054906101000a900460ff1681565b7f000000000000000000000000000000000000000000000000000000000000000073ffffffffffffffffffffffffffffffffffffffff163373ffffffffffffffffffffffffffffffffffffffff161461024c576040517f08c379a00000000000000000000000000000000000000000000000000000000081526004016102439061123e565b60405180910390fd5b600160028111156102605761025f610e23565b5b60008054906101000a900460ff1660028111156102805761027f610e23565b5b146102c0576040517f08c379a00000000000000000000000000000000000000000000000000000000081526004016102b7906112aa565b60405180910390fd5b600060018054905011610308576040517f08c379a00000000000000000000000000000000000000000000000000000000081526004016102ff90611316565b60405180910390fd5b60026000806101000a81548160ff0219169083600281111561032d5761032c610e23565b5b02179055506000805b6001805490508110156103ac57816001828154811061035857610357611336565b5b9060005260206000209060020201600101541115610399576001818154811061038457610383611336565b5b90600052602060002090600202016001015491505b80806103a490611394565b915050610336565b5060005b60018054905081101561046b5781600182815481106103d2576103d1611336565b5b90600052602060002090600202016001015403610458576003600182815481106103ff576103fe611336565b5b906000526020600020906002020190806001815401808255809150506001900390600052602060002090600202016000909190919091506000820181600001908161044a91906115fe565b506001820154816001015550505b808061046390611394565b9150506103b0565b507f562cd572b2ba3b666cd989fc4ca98419ec81e75f04528df9d9d76fdb7807ee716003805490506040516104a09190610e08565b60405180910390a150565b600181815481106104bb57600080fd5b90600052602060002090600202016000915090508060000180546104de9061140b565b80601f016020809104026020016040519081016040528092919081815260200182805461050a9061140b565b80156105575780601f1061052c57610100808354040283529160200191610557565b820191906000526020600020905b81548152906001019060200180831161053a57829003601f168201915b5050505050908060010154905082565b7f000000000000000000000000000000000000000000000000000000000000000073ffffffffffffffffffffffffffffffffffffffff163373ffffffffffffffffffffffffffffffffffffffff16146105f5576040517f08c379a00000000000000000000000000000000000000000000000000000000081526004016105ec9061123e565b60405180910390fd5b6000600281111561060957610608610e23565b5b60008054906101000a900460ff16600281111561062957610628610e23565b5b14610669576040517f08c379a000000000000000000000000000000000000000000000000000000000815260040161066090611732565b60405180910390fd5b8060028160405161067a919061178e565b908152602001604051809103902060009054906101000a900460ff16156106d6576040517f08c379a00000000000000000000000000000000000000000000000000000000081526004016106cd90611817565b60405180910390fd5b6000604051806040016040528084815260200160008152509050600181908060018154018082558091505060019003906000526020600020906002020160009091909190915060008201518160000190816107319190611837565b506020820151816001015550506001600284604051610750919061178e565b908152602001604051809103902060006101000a81548160ff0219169083151502179055507f896847989b21b81e24c9eee2d32332cbef5090379a811d37690d053bebac7292836040516107a49190611909565b60405180910390a1505050565b81600180549050811080156107c7575060008110155b610806576040517f08c379a00000000000000000000000000000000000000000000000000000000081526004016107fd90611977565b60405180910390fd5b6001600281111561081a57610819610e23565b5b60008054906101000a900460ff16600281111561083a57610839610e23565b5b1461087a576040517f08c379a0000000000000000000000000000000000000000000000000000000008152600401610871906112aa565b60405180910390fd5b81600460003373ffffffffffffffffffffffffffffffffffffffff1673ffffffffffffffffffffffffffffffffffffffff16815260200190815260200160002060009054906101000a900460ff161580156108fe57506005816040516108e0919061178e565b908152602001604051809103902060009054906101000a900460ff16155b61093d576040517f08c379a000000000000000000000000000000000000000000000000000000000815260040161093490611a09565b60405180910390fd5b600160058460405161094f919061178e565b908152602001604051809103902060006101000a81548160ff0219169083151502179055506001600460003373ffffffffffffffffffffffffffffffffffffffff1673ffffffffffffffffffffffffffffffffffffffff16815260200190815260200160002060006101000a81548160ff0219169083151502179055506000600185815481106109e2576109e1611336565b5b9060005260206000209060020201604051806040016040529081600082018054610a0b9061140b565b80601f0160208091040260200160405190810160405280929190818152602001828054610a379061140b565b8015610a845780601f10610a5957610100808354040283529160200191610a84565b820191906000526020600020905b815481529060010190602001808311610a6757829003601f168201915b505050505081526020016001820154815250509050806020018051809190610aab90611394565b815250508060018681548110610ac457610ac3611336565b5b90600052602060002090600202016000820151816000019081610ae79190611837565b50602082015181600101559050507f82ea01a4479f27996bbe8de24f4c8d962035fe2f32a2b130c8c9ca593ab91aa881600001518260200151604051610b2e929190610fb2565b60405180910390a15050505050565b7f000000000000000000000000000000000000000000000000000000000000000073ffffffffffffffffffffffffffffffffffffffff163373ffffffffffffffffffffffffffffffffffffffff1614610bcb576040517f08c379a0000000000000000000000000000000000000000000000000000000008152600401610bc29061123e565b60405180910390fd5b60006002811115610bdf57610bde610e23565b5b60008054906101000a900460ff166002811115610bff57610bfe610e23565b5b14610c3f576040517f08c379a0000000000000000000000000000000000000000000000000000000008152600401610c3690611732565b60405180910390fd5b600060018054905011610c87576040517f08c379a0000000000000000000000000000000000000000000000000000000008152600401610c7e90611316565b60405180910390fd5b60016000806101000a81548160ff02191690836002811115610cac57610cab610e23565b5b02179055507fc475c26aa25ed8e85a7faa790e5f63b5d7ee1025f12821f4c9bfddd36ab4d11260405160405180910390a1565b6000600460003373ffffffffffffffffffffffffffffffffffffffff1673ffffffffffffffffffffffffffffffffffffffff16815260200190815260200160002060009054906101000a900460ff16905090565b60038181548110610d4357600080fd5b9060005260206000209060020201600091509050806000018054610d669061140b565b80601f0160208091040260200160405190810160405280929190818152602001828054610d929061140b565b8015610ddf5780601f10610db457610100808354040283529160200191610ddf565b820191906000526020600020905b815481529060010190602001808311610dc257829003601f168201915b5050505050908060010154905082565b6000819050919050565b610e0281610def565b82525050565b6000602082019050610e1d6000830184610df9565b92915050565b7f4e487b7100000000000000000000000000000000000000000000000000000000600052602160045260246000fd5b60038110610e6357610e62610e23565b5b50565b6000819050610e7482610e52565b919050565b6000610e8482610e66565b9050919050565b610e9481610e79565b82525050565b6000602082019050610eaf6000830184610e8b565b92915050565b6000604051905090565b600080fd5b600080fd5b610ed281610def565b8114610edd57600080fd5b50565b600081359050610eef81610ec9565b92915050565b600060208284031215610f0b57610f0a610ebf565b5b6000610f1984828501610ee0565b91505092915050565b600081519050919050565b600082825260208201905092915050565b60005b83811015610f5c578082015181840152602081019050610f41565b60008484015250505050565b6000601f19601f8301169050919050565b6000610f8482610f22565b610f8e8185610f2d565b9350610f9e818560208601610f3e565b610fa781610f68565b840191505092915050565b60006040820190508181036000830152610fcc8185610f79565b9050610fdb6020830184610df9565b9392505050565b600080fd5b600080fd5b7f4e487b7100000000000000000000000000000000000000000000000000000000600052604160045260246000fd5b61102482610f68565b810181811067ffffffffffffffff8211171561104357611042610fec565b5b80604052505050565b6000611056610eb5565b9050611062828261101b565b919050565b600067ffffffffffffffff82111561108257611081610fec565b5b61108b82610f68565b9050602081019050919050565b82818337600083830152505050565b60006110ba6110b584611067565b61104c565b9050828152602081018484840111156110d6576110d5610fe7565b5b6110e1848285611098565b509392505050565b600082601f8301126110fe576110fd610fe2565b5b813561110e8482602086016110a7565b91505092915050565b60006020828403121561112d5761112c610ebf565b5b600082013567ffffffffffffffff81111561114b5761114a610ec4565b5b611157848285016110e9565b91505092915050565b6000806040838503121561117757611176610ebf565b5b600061118585828601610ee0565b925050602083013567ffffffffffffffff8111156111a6576111a5610ec4565b5b6111b2858286016110e9565b9150509250929050565b60008115159050919050565b6111d1816111bc565b82525050565b60006020820190506111ec60008301846111c8565b92915050565b7f4f6e6c79206368616972706572736f6e2063616e20646f20746861742e000000600082015250565b6000611228601d83610f2d565b9150611233826111f2565b602082019050919050565b600060208201905081810360008301526112578161121b565b9050919050565b7f456c656374696f6e206e6f7420696e2072756e6e696e672073746174652e0000600082015250565b6000611294601e83610f2d565b915061129f8261125e565b602082019050919050565b600060208201905081810360008301526112c381611287565b9050919050565b7f546865726520617265206e6f2063616e646964617465732e0000000000000000600082015250565b6000611300601883610f2d565b915061130b826112ca565b602082019050919050565b6000602082019050818103600083015261132f816112f3565b9050919050565b7f4e487b7100000000000000000000000000000000000000000000000000000000600052603260045260246000fd5b7f4e487b7100000000000000000000000000000000000000000000000000000000600052601160045260246000fd5b600061139f82610def565b91507fffffffffffffffffffffffffffffffffffffffffffffffffffffffffffffffff82036113d1576113d0611365565b5b600182019050919050565b7f4e487b7100000000000000000000000000000000000000000000000000000000600052602260045260246000fd5b6000600282049050600182168061142357607f821691505b602082108103611436576114356113dc565b5b50919050565b60008154905061144b8161140b565b9050919050565b60008190508160005260206000209050919050565b60006020601f8301049050919050565b600082821b905092915050565b6000600883026114b47fffffffffffffffffffffffffffffffffffffffffffffffffffffffffffffffff82611477565b6114be8683611477565b95508019841693508086168417925050509392505050565b6000819050919050565b60006114fb6114f66114f184610def565b6114d6565b610def565b9050919050565b6000819050919050565b611515836114e0565b61152961152182611502565b848454611484565b825550505050565b600090565b61153e611531565b61154981848461150c565b505050565b5b8181101561156d57611562600082611536565b60018101905061154f565b5050565b601f8211156115b25761158381611452565b61158c84611467565b8101602085101561159b578190505b6115af6115a785611467565b83018261154e565b50505b505050565b600082821c905092915050565b60006115d5600019846008026115b7565b1980831691505092915050565b60006115ee83836115c4565b9150826002028217905092915050565b81810361160c5750506116e4565b6116158261143c565b67ffffffffffffffff81111561162e5761162d610fec565b5b611638825461140b565b611643828285611571565b6000601f8311600181146116725760008415611660578287015490505b61166a85826115e2565b8655506116dd565b601f19841661168087611452565b965061168b86611452565b60005b828110156116b35784890154825560018201915060018501945060208101905061168e565b868310156116d057848901546116cc601f8916826115c4565b8355505b6001600288020188555050505b5050505050505b565b7f456c656374696f6e206e6f7420696e2070656e64696e672073746174652e0000600082015250565b600061171c601e83610f2d565b9150611727826116e6565b602082019050919050565b6000602082019050818103600083015261174b8161170f565b9050919050565b600081905092915050565b600061176882610f22565b6117728185611752565b9350611782818560208601610f3e565b80840191505092915050565b600061179a828461175d565b915081905092915050565b7f43616e64696461746520616c726561647920616464656420746f20746865206560008201527f6c656374696f6e2e000000000000000000000000000000000000000000000000602082015250565b6000611801602883610f2d565b915061180c826117a5565b604082019050919050565b60006020820190508181036000830152611830816117f4565b9050919050565b61184082610f22565b67ffffffffffffffff81111561185957611858610fec565b5b611863825461140b565b61186e828285611571565b600060209050601f8311600181146118a1576000841561188f578287015190505b61189985826115e2565b865550611901565b601f1984166118af86611452565b60005b828110156118d7578489015182556001820191506020850194506020810190506118b2565b868310156118f457848901516118f0601f8916826115c4565b8355505b6001600288020188555050505b505050505050565b600060208201905081810360008301526119238184610f79565b905092915050565b7f43616e64696461746520696e64657820696e76616c69642e0000000000000000600082015250565b6000611961601883610f2d565b915061196c8261192b565b602082019050919050565b6000602082019050818103600083015261199081611954565b9050919050565b7f566f746572206861732070726576696f75736c7920766f74656420696e20746860008201527f697320656c656374696f6e2e0000000000000000000000000000000000000000602082015250565b60006119f3602c83610f2d565b91506119fe82611997565b604082019050919050565b60006020820190508181036000830152611a22816119e6565b905091905056fea2646970667358221220f94ef5d9fccd96eafd96e58df36476fbfee6af9a9937f2027af71c9896fd13c364736f6c63430008120033",
  "immutableReferences": {
    "126": [
      {
        "length": 32,
        "start": 448
      },
      {
        "length": 32,
        "start": 1385
      },
      {
        "length": 32,
        "start": 2879
      }
    ]
  },
  "source": "// SPDX-License-Identifier: MIT\npragma solidity ^0.8.0;\n\n//enum of possible election statuses\nenum Status {\n    PENDING,\n    RUNNING,\n    FINISHED\n}\n\n//struct of the Candidate details\nstruct Candidate {\n    string name;\n    uint voteCount;\n}\n\ncontract ElectoralPoll {\n    Status public status; // status of the election\n    address immutable chairperson; // account address of chairperson that can interact\n\n    Candidate[] public candidates; //array of the candidates for the election\n    mapping(string => bool) candidateBoolMapper; //bool mapper used to check existence of a candidate\n    Candidate[] public winners;\n\n    mapping(address => bool) voterAddressBoolMapper; //bool mapper for checking voter account address checking\n    mapping(string => bool) voterAadhaarBoolMapper; //bool mapper for checking voter aadhaar checking\n\n    modifier newVoterOnly(string memory _aadhaar) {\n        require(\n            !voterAddressBoolMapper[msg.sender] &&\n                !voterAadhaarBoolMapper[_aadhaar],\n            \"Voter has previously voted in this election.\"\n        );\n        _;\n    }\n\n    modifier newCandidateOnly(string memory _name) {\n        require(\n            !candidateBoolMapper[_name],\n            \"Candidate already added to the election.\"\n        );\n        _;\n    }\n\n    modifier isChairperson() {\n        require(msg.sender == chairperson, \"Only chairperson can do that.\");\n        _;\n    }\n\n    modifier electionIsPending() {\n        require(status == Status.PENDING, \"Election not in pending state.\");\n        _;\n    }\n    modifier electionIsRunning() {\n        require(status == Status.RUNNING, \"Election not in running state.\");\n        _;\n    }\n    modifier electionIsStopped() {\n        require(status == Status.FINISHED, \"Election not finished yet.\");\n        _;\n    }\n\n    function startElection()\n        public\n        isChairperson\n        electionIsPending\n        candidatesNotEmpty\n    {\n        status = Status.RUNNING;\n        emit ElectionStarted();\n    }\n\n    function stopElection()\n        public\n        isChairperson\n        electionIsRunning\n        candidatesNotEmpty\n    {\n        status = Status.FINISHED;\n        uint maxVotes = 0;\n        for (uint i = 0; i < candidates.length; i++) {\n            if (candidates[i].voteCount > maxVotes) {\n                maxVotes = candidates[i].voteCount;\n            }\n        }\n        for (uint i = 0; i < candidates.length; i++) {\n            if (candidates[i].voteCount == maxVotes) {\n                winners.push(candidates[i]);\n            }\n        }\n        emit ElectionEnded(winners.length);\n    }\n\n    function addCandidate(\n        string memory _name\n    ) public isChairperson electionIsPending newCandidateOnly(_name) {\n        Candidate memory c = Candidate({name: _name, voteCount: 0});\n        candidates.push(c);\n        candidateBoolMapper[_name] = true;\n        emit NewCandidate(_name);\n    }\n\n    modifier candidateIndexInBound(uint i) {\n        require(i < candidates.length && i >= 0, \"Candidate index invalid.\");\n        _;\n    }\n\n    modifier candidatesNotEmpty() {\n        require(candidates.length > 0, \"There are no candidates.\");\n        _;\n    }\n\n    function delegateVote(\n        uint _index,\n        string memory _aadhaar\n    )\n        public\n        candidateIndexInBound(_index)\n        electionIsRunning\n        newVoterOnly(_aadhaar)\n    {\n        voterAadhaarBoolMapper[_aadhaar] = true;\n        voterAddressBoolMapper[msg.sender] = true;\n        Candidate memory c = candidates[_index];\n        c.voteCount++;\n        candidates[_index] = c;\n        emit Voted(c.name, c.voteCount);\n    }\n\n    function getCandidatesLength() public view returns (uint) {\n        return candidates.length;\n    }\n\n    function isVoted() public view returns (bool) {\n        return voterAddressBoolMapper[msg.sender];\n    }\n\n    // write winner candidate array and when election stopped then populate with winners\n\n    constructor(address _chairperson) {\n        chairperson = _chairperson;\n        status = Status.PENDING;\n    }\n\n    event ElectionStarted();\n    event ElectionEnded(uint winnerCount);\n    event Voted(string name, uint newCount);\n    event NewCandidate(string name);\n}\n\n// write getter functions for candidate and winners..\n",
  "sourcePath": "/home/manav/Blockchain Lab/blockchain-project-group-1/truffle/contracts/ElectoralPoll.sol",
  "compiler": {
    "name": "solc",
    "version": "0.8.18+commit.87f61d96.Emscripten.clang"
  },
  "schemaVersion": "3.4.16",
  "updatedAt": "2024-03-23T13:43:05.226Z",
  "devdoc": {
    "kind": "dev",
    "methods": {},
    "version": 1
  },
  "userdoc": {
    "kind": "user",
    "methods": {},
    "version": 1
  }
}