{
  "contractName": "Identity",
  "abi": [
    {
      "inputs": [],
      "stateMutability": "nonpayable",
      "type": "constructor"
    },
    {
      "inputs": [],
      "name": "isRegistered",
      "outputs": [
        {
          "internalType": "bool",
          "name": "",
          "type": "bool"
        }
      ],
      "stateMutability": "view",
      "type": "function",
      "constant": true
    },
    {
      "inputs": [
        {
          "internalType": "string",
          "name": "_name",
          "type": "string"
        },
        {
          "internalType": "string",
          "name": "_aadhaar",
          "type": "string"
        }
      ],
      "name": "register",
      "outputs": [],
      "stateMutability": "nonpayable",
      "type": "function"
    },
    {
      "inputs": [],
      "name": "getId",
      "outputs": [
        {
          "components": [
            {
              "internalType": "address",
              "name": "addr",
              "type": "address"
            },
            {
              "internalType": "string",
              "name": "name",
              "type": "string"
            },
            {
              "internalType": "string",
              "name": "aadhaar",
              "type": "string"
            }
          ],
          "internalType": "struct VoterId",
          "name": "",
          "type": "tuple"
        }
      ],
      "stateMutability": "view",
      "type": "function",
      "constant": true
    },
    {
      "inputs": [],
      "name": "isChairperson",
      "outputs": [
        {
          "internalType": "bool",
          "name": "",
          "type": "bool"
        }
      ],
      "stateMutability": "view",
      "type": "function",
      "constant": true
    }
  ],
  "bytecode": "0x608060405234801561001057600080fd5b5033600360006101000a81548173ffffffffffffffffffffffffffffffffffffffff021916908373ffffffffffffffffffffffffffffffffffffffff160217905550610d77806100616000396000f3fe608060405234801561001057600080fd5b506004361061004c5760003560e01c806322366844146100515780633ffbd47f1461006f5780635d1ca6311461008b578063671b0874146100a9575b600080fd5b6100596100c7565b60405161006691906105d1565b60405180910390f35b61008960048036038101906100849190610746565b61011b565b005b610093610346565b6040516100a091906108d5565b60405180910390f35b6100b1610527565b6040516100be91906105d1565b60405180910390f35b6000600160003373ffffffffffffffffffffffffffffffffffffffff1673ffffffffffffffffffffffffffffffffffffffff16815260200190815260200160002060009054906101000a900460ff16905090565b6101236100c7565b15610163576040517f08c379a000000000000000000000000000000000000000000000000000000000815260040161015a9061097a565b60405180910390fd5b60028160405161017391906109d6565b908152602001604051809103902060009054906101000a900460ff16156101cf576040517f08c379a00000000000000000000000000000000000000000000000000000000081526004016101c690610a39565b60405180910390fd5b60018060003373ffffffffffffffffffffffffffffffffffffffff1673ffffffffffffffffffffffffffffffffffffffff16815260200190815260200160002060006101000a81548160ff021916908315150217905550600160028260405161023891906109d6565b908152602001604051809103902060006101000a81548160ff02191690831515021790555060405180606001604052803373ffffffffffffffffffffffffffffffffffffffff168152602001838152602001828152506000803373ffffffffffffffffffffffffffffffffffffffff1673ffffffffffffffffffffffffffffffffffffffff16815260200190815260200160002060008201518160000160006101000a81548173ffffffffffffffffffffffffffffffffffffffff021916908373ffffffffffffffffffffffffffffffffffffffff16021790555060208201518160010190816103289190610c6f565b50604082015181600201908161033e9190610c6f565b509050505050565b61034e61057f565b6103566100c7565b61035f57600080fd5b6000803373ffffffffffffffffffffffffffffffffffffffff1673ffffffffffffffffffffffffffffffffffffffff1681526020019081526020016000206040518060600160405290816000820160009054906101000a900473ffffffffffffffffffffffffffffffffffffffff1673ffffffffffffffffffffffffffffffffffffffff1673ffffffffffffffffffffffffffffffffffffffff16815260200160018201805461040e90610a88565b80601f016020809104026020016040519081016040528092919081815260200182805461043a90610a88565b80156104875780601f1061045c57610100808354040283529160200191610487565b820191906000526020600020905b81548152906001019060200180831161046a57829003601f168201915b505050505081526020016002820180546104a090610a88565b80601f01602080910402602001604051908101604052809291908181526020018280546104cc90610a88565b80156105195780601f106104ee57610100808354040283529160200191610519565b820191906000526020600020905b8154815290600101906020018083116104fc57829003601f168201915b505050505081525050905090565b60003373ffffffffffffffffffffffffffffffffffffffff16600360009054906101000a900473ffffffffffffffffffffffffffffffffffffffff1673ffffffffffffffffffffffffffffffffffffffff1614905090565b6040518060600160405280600073ffffffffffffffffffffffffffffffffffffffff16815260200160608152602001606081525090565b60008115159050919050565b6105cb816105b6565b82525050565b60006020820190506105e660008301846105c2565b92915050565b6000604051905090565b600080fd5b600080fd5b600080fd5b600080fd5b6000601f19601f8301169050919050565b7f4e487b7100000000000000000000000000000000000000000000000000000000600052604160045260246000fd5b6106538261060a565b810181811067ffffffffffffffff821117156106725761067161061b565b5b80604052505050565b60006106856105ec565b9050610691828261064a565b919050565b600067ffffffffffffffff8211156106b1576106b061061b565b5b6106ba8261060a565b9050602081019050919050565b82818337600083830152505050565b60006106e96106e484610696565b61067b565b90508281526020810184848401111561070557610704610605565b5b6107108482856106c7565b509392505050565b600082601f83011261072d5761072c610600565b5b813561073d8482602086016106d6565b91505092915050565b6000806040838503121561075d5761075c6105f6565b5b600083013567ffffffffffffffff81111561077b5761077a6105fb565b5b61078785828601610718565b925050602083013567ffffffffffffffff8111156107a8576107a76105fb565b5b6107b485828601610718565b9150509250929050565b600073ffffffffffffffffffffffffffffffffffffffff82169050919050565b60006107e9826107be565b9050919050565b6107f9816107de565b82525050565b600081519050919050565b600082825260208201905092915050565b60005b8381101561083957808201518184015260208101905061081e565b60008484015250505050565b6000610850826107ff565b61085a818561080a565b935061086a81856020860161081b565b6108738161060a565b840191505092915050565b600060608301600083015161089660008601826107f0565b50602083015184820360208601526108ae8282610845565b915050604083015184820360408601526108c88282610845565b9150508091505092915050565b600060208201905081810360008301526108ef818461087e565b905092915050565b600082825260208201905092915050565b7f4163636f756e7420686f6c64657220616c72656164792072656769737465726560008201527f642e000000000000000000000000000000000000000000000000000000000000602082015250565b60006109646022836108f7565b915061096f82610908565b604082019050919050565b6000602082019050818103600083015261099381610957565b9050919050565b600081905092915050565b60006109b0826107ff565b6109ba818561099a565b93506109ca81856020860161081b565b80840191505092915050565b60006109e282846109a5565b915081905092915050565b7f41616468617220686f6c64657220616c72656164792072656769737465726564600082015250565b6000610a236020836108f7565b9150610a2e826109ed565b602082019050919050565b60006020820190508181036000830152610a5281610a16565b9050919050565b7f4e487b7100000000000000000000000000000000000000000000000000000000600052602260045260246000fd5b60006002820490506001821680610aa057607f821691505b602082108103610ab357610ab2610a59565b5b50919050565b60008190508160005260206000209050919050565b60006020601f8301049050919050565b600082821b905092915050565b600060088302610b1b7fffffffffffffffffffffffffffffffffffffffffffffffffffffffffffffffff82610ade565b610b258683610ade565b95508019841693508086168417925050509392505050565b6000819050919050565b6000819050919050565b6000610b6c610b67610b6284610b3d565b610b47565b610b3d565b9050919050565b6000819050919050565b610b8683610b51565b610b9a610b9282610b73565b848454610aeb565b825550505050565b600090565b610baf610ba2565b610bba818484610b7d565b505050565b5b81811015610bde57610bd3600082610ba7565b600181019050610bc0565b5050565b601f821115610c2357610bf481610ab9565b610bfd84610ace565b81016020851015610c0c578190505b610c20610c1885610ace565b830182610bbf565b50505b505050565b600082821c905092915050565b6000610c4660001984600802610c28565b1980831691505092915050565b6000610c5f8383610c35565b9150826002028217905092915050565b610c78826107ff565b67ffffffffffffffff811115610c9157610c9061061b565b5b610c9b8254610a88565b610ca6828285610be2565b600060209050601f831160018114610cd95760008415610cc7578287015190505b610cd18582610c53565b865550610d39565b601f198416610ce786610ab9565b60005b82811015610d0f57848901518255600182019150602085019450602081019050610cea565b86831015610d2c5784890151610d28601f891682610c35565b8355505b6001600288020188555050505b50505050505056fea2646970667358221220391f4f0796cd4f27b1bb571795e20d2d503853539f7001167e257c641d775ebb64736f6c63430008120033",
  "immutableReferences": {},
  "source": "// SPDX-License-Identifier: MIT\npragma solidity ^0.8.0;\n\nstruct VoterId {\n    address addr;\n    string name;\n    string aadhaar;\n}\n\ncontract Identity {\n    mapping(address => VoterId) voterMapper;\n    mapping(address => bool) voterBoolMapper;\n    mapping(string => bool) aadhaarBoolMapper;\n    address chairperson;\n\n    function isRegistered() public view returns (bool) {\n        return voterBoolMapper[msg.sender];\n    }\n\n    function register(string memory _name, string memory _aadhaar) public {\n        require(!isRegistered(), \"Account holder already registered.\");\n        require(\n            !aadhaarBoolMapper[_aadhaar],\n            \"Aadhar holder already registered\"\n        );\n        voterBoolMapper[msg.sender] = true;\n        aadhaarBoolMapper[_aadhaar] = true;\n        voterMapper[msg.sender] = VoterId({\n            addr: msg.sender,\n            name: _name,\n            aadhaar: _aadhaar\n        });\n    }\n\n    function getId() public view returns (VoterId memory) {\n        require(isRegistered());\n        return voterMapper[msg.sender];\n    }\n\n    function isChairperson() public view returns (bool) {\n        return chairperson == msg.sender;\n    }\n\n    constructor() {\n        chairperson = msg.sender;\n    }\n}\n",
  "sourcePath": "/home/manav/Blockchain Lab/blockchain-project-group-1/truffle/contracts/Identity.sol",
  "compiler": {
    "name": "solc",
    "version": "0.8.18+commit.87f61d96.Emscripten.clang"
  },
  "schemaVersion": "3.4.16",
  "updatedAt": "2024-03-23T15:21:33.631Z",
  "networkType": "ethereum",
  "devdoc": {
    "kind": "dev",
    "methods": {},
    "version": 1
  },
  "userdoc": {
    "kind": "user",
    "methods": {},
    "version": 1
  }
}