{
  "contractName": "Ballot",
  "abi": [
    {
      "inputs": [],
      "stateMutability": "nonpayable",
      "type": "constructor"
    },
    {
      "anonymous": false,
      "inputs": [],
      "name": "ElectionEnded",
      "type": "event"
    },
    {
      "anonymous": false,
      "inputs": [],
      "name": "ElectionStarted",
      "type": "event"
    },
    {
      "inputs": [
        {
          "internalType": "uint256",
          "name": "",
          "type": "uint256"
        }
      ],
      "name": "candidates",
      "outputs": [
        {
          "internalType": "string",
          "name": "name",
          "type": "string"
        },
        {
          "internalType": "uint256",
          "name": "voteCount",
          "type": "uint256"
        }
      ],
      "stateMutability": "view",
      "type": "function",
      "constant": true
    },
    {
      "inputs": [],
      "name": "chairperson",
      "outputs": [
        {
          "internalType": "address",
          "name": "",
          "type": "address"
        }
      ],
      "stateMutability": "view",
      "type": "function",
      "constant": true
    },
    {
      "inputs": [],
      "name": "isElectionRunning",
      "outputs": [
        {
          "internalType": "bool",
          "name": "",
          "type": "bool"
        }
      ],
      "stateMutability": "view",
      "type": "function",
      "constant": true
    },
    {
      "inputs": [],
      "name": "startElection",
      "outputs": [],
      "stateMutability": "nonpayable",
      "type": "function"
    },
    {
      "inputs": [],
      "name": "stopElection",
      "outputs": [],
      "stateMutability": "nonpayable",
      "type": "function"
    },
    {
      "inputs": [],
      "name": "checkIfChairperson",
      "outputs": [
        {
          "internalType": "bool",
          "name": "",
          "type": "bool"
        }
      ],
      "stateMutability": "view",
      "type": "function",
      "constant": true
    },
    {
      "inputs": [
        {
          "internalType": "string",
          "name": "_name",
          "type": "string"
        }
      ],
      "name": "addCandidate",
      "outputs": [],
      "stateMutability": "nonpayable",
      "type": "function"
    },
    {
      "inputs": [],
      "name": "getCandidateLength",
      "outputs": [
        {
          "internalType": "uint256",
          "name": "",
          "type": "uint256"
        }
      ],
      "stateMutability": "view",
      "type": "function",
      "constant": true
    },
    {
      "inputs": [],
      "name": "getWinner",
      "outputs": [
        {
          "components": [
            {
              "internalType": "string",
              "name": "name",
              "type": "string"
            },
            {
              "internalType": "uint256",
              "name": "voteCount",
              "type": "uint256"
            }
          ],
          "internalType": "struct Ballot.Candidate",
          "name": "",
          "type": "tuple"
        }
      ],
      "stateMutability": "view",
      "type": "function",
      "constant": true
    },
    {
      "inputs": [
        {
          "internalType": "string",
          "name": "_aadhaar",
          "type": "string"
        },
        {
          "internalType": "uint256",
          "name": "_index",
          "type": "uint256"
        }
      ],
      "name": "registerVote",
      "outputs": [],
      "stateMutability": "nonpayable",
      "type": "function"
    }
  ],
  "bytecode": "0x608060405234801561001057600080fd5b50336000806101000a81548173ffffffffffffffffffffffffffffffffffffffff021916908373ffffffffffffffffffffffffffffffffffffffff160217905550611640806100606000396000f3fe608060405234801561001057600080fd5b506004361061009e5760003560e01c8063872b714d11610066578063872b714d146101225780638e7ea5b21461013e578063e76d516e1461015c578063e80d44dd1461017a578063f7522a83146101985761009e565b80632df9feaa146100a35780632e4176cf146100ad5780633477ee2e146100cb578063462e91ec146100fc57806362d73eb814610118575b600080fd5b6100ab6101b6565b005b6100b56102db565b6040516100c29190610b41565b60405180910390f35b6100e560048036038101906100e09190610ba6565b6102ff565b6040516100f3929190610c72565b60405180910390f35b61011660048036038101906101119190610dd7565b6103bb565b005b610120610523565b005b61013c60048036038101906101379190610e20565b61064a565b005b610146610889565b6040516101539190610f12565b60405180910390f35b610164610a70565b6040516101719190610f4f565b60405180910390f35b610182610ac6565b60405161018f9190610f4f565b60405180910390f35b6101a0610ad9565b6040516101ad9190610f6a565b60405180910390f35b60008054906101000a900473ffffffffffffffffffffffffffffffffffffffff1673ffffffffffffffffffffffffffffffffffffffff163373ffffffffffffffffffffffffffffffffffffffff1614610244576040517f08c379a000000000000000000000000000000000000000000000000000000000815260040161023b90610fd1565b60405180910390fd5b600060149054906101000a900460ff16610293576040517f08c379a000000000000000000000000000000000000000000000000000000000815260040161028a9061103d565b60405180910390fd5b60008060146101000a81548160ff0219169083151502179055507f66ec723071e4bb646f7b35d31bc2dee8510979bd8c180edd0690d4f5e802f1e460405160405180910390a1565b60008054906101000a900473ffffffffffffffffffffffffffffffffffffffff1681565b6002818154811061030f57600080fd5b90600052602060002090600202016000915090508060000180546103329061108c565b80601f016020809104026020016040519081016040528092919081815260200182805461035e9061108c565b80156103ab5780601f10610380576101008083540402835291602001916103ab565b820191906000526020600020905b81548152906001019060200180831161038e57829003601f168201915b5050505050908060010154905082565b806001816040516103cc91906110f9565b908152602001604051809103902060009054906101000a900460ff16156103f257600080fd5b60008054906101000a900473ffffffffffffffffffffffffffffffffffffffff1673ffffffffffffffffffffffffffffffffffffffff163373ffffffffffffffffffffffffffffffffffffffff1614610480576040517f08c379a000000000000000000000000000000000000000000000000000000000815260040161047790610fd1565b60405180910390fd5b6000604051806040016040528084815260200160008152509050600281908060018154018082558091505060019003906000526020600020906002020160009091909190915060008201518160000190816104db91906112bc565b50602082015181600101555050600180846040516104f991906110f9565b908152602001604051809103902060006101000a81548160ff021916908315150217905550505050565b60008054906101000a900473ffffffffffffffffffffffffffffffffffffffff1673ffffffffffffffffffffffffffffffffffffffff163373ffffffffffffffffffffffffffffffffffffffff16146105b1576040517f08c379a00000000000000000000000000000000000000000000000000000000081526004016105a890610fd1565b60405180910390fd5b600060149054906101000a900460ff1615610601576040517f08c379a00000000000000000000000000000000000000000000000000000000081526004016105f8906113da565b60405180910390fd5b6001600060146101000a81548160ff0219169083151502179055507fc475c26aa25ed8e85a7faa790e5f63b5d7ee1025f12821f4c9bfddd36ab4d11260405160405180910390a1565b81600460003373ffffffffffffffffffffffffffffffffffffffff1673ffffffffffffffffffffffffffffffffffffffff16815260200190815260200160002060009054906101000a900460ff161580156106ce57506003816040516106b091906110f9565b908152602001604051809103902060009054906101000a900460ff16155b61070d576040517f08c379a000000000000000000000000000000000000000000000000000000000815260040161070490611446565b60405180910390fd5b81600280549050811061071f57600080fd5b600060149054906101000a900460ff1661076e576040517f08c379a00000000000000000000000000000000000000000000000000000000081526004016107659061103d565b60405180910390fd5b600160038560405161078091906110f9565b908152602001604051809103902060006101000a81548160ff0219169083151502179055506001600460003373ffffffffffffffffffffffffffffffffffffffff1673ffffffffffffffffffffffffffffffffffffffff16815260200190815260200160002060006101000a81548160ff02191690831515021790555060006002848154811061081357610812611466565b5b90600052602060002090600202019050806001016000815480929190610838906114c4565b9190505550806002858154811061085257610851611466565b5b9060005260206000209060020201600082018160000190816108749190611522565b50600182015481600101559050505050505050565b610891610ae6565b6000600280549050116108a357600080fd5b600060149054906101000a900460ff16156108f3576040517f08c379a00000000000000000000000000000000000000000000000000000000081526004016108ea906113da565b60405180910390fd5b6000600260008154811061090a57610909611466565b5b9060005260206000209060020201600101549050600080600190505b60028054905081101561099f576002818154811061094757610946611466565b5b90600052602060002090600202016001015483101561098c576002818154811061097457610973611466565b5b90600052602060002090600202016001015492508091505b8080610997906114c4565b915050610926565b50600281815481106109b4576109b3611466565b5b90600052602060002090600202016040518060400160405290816000820180546109dd9061108c565b80601f0160208091040260200160405190810160405280929190818152602001828054610a099061108c565b8015610a565780601f10610a2b57610100808354040283529160200191610a56565b820191906000526020600020905b815481529060010190602001808311610a3957829003601f168201915b505050505081526020016001820154815250509250505090565b60003373ffffffffffffffffffffffffffffffffffffffff1660008054906101000a900473ffffffffffffffffffffffffffffffffffffffff1673ffffffffffffffffffffffffffffffffffffffff1614905090565b600060149054906101000a900460ff1681565b6000600280549050905090565b604051806040016040528060608152602001600081525090565b600073ffffffffffffffffffffffffffffffffffffffff82169050919050565b6000610b2b82610b00565b9050919050565b610b3b81610b20565b82525050565b6000602082019050610b566000830184610b32565b92915050565b6000604051905090565b600080fd5b600080fd5b6000819050919050565b610b8381610b70565b8114610b8e57600080fd5b50565b600081359050610ba081610b7a565b92915050565b600060208284031215610bbc57610bbb610b66565b5b6000610bca84828501610b91565b91505092915050565b600081519050919050565b600082825260208201905092915050565b60005b83811015610c0d578082015181840152602081019050610bf2565b60008484015250505050565b6000601f19601f8301169050919050565b6000610c3582610bd3565b610c3f8185610bde565b9350610c4f818560208601610bef565b610c5881610c19565b840191505092915050565b610c6c81610b70565b82525050565b60006040820190508181036000830152610c8c8185610c2a565b9050610c9b6020830184610c63565b9392505050565b600080fd5b600080fd5b7f4e487b7100000000000000000000000000000000000000000000000000000000600052604160045260246000fd5b610ce482610c19565b810181811067ffffffffffffffff82111715610d0357610d02610cac565b5b80604052505050565b6000610d16610b5c565b9050610d228282610cdb565b919050565b600067ffffffffffffffff821115610d4257610d41610cac565b5b610d4b82610c19565b9050602081019050919050565b82818337600083830152505050565b6000610d7a610d7584610d27565b610d0c565b905082815260208101848484011115610d9657610d95610ca7565b5b610da1848285610d58565b509392505050565b600082601f830112610dbe57610dbd610ca2565b5b8135610dce848260208601610d67565b91505092915050565b600060208284031215610ded57610dec610b66565b5b600082013567ffffffffffffffff811115610e0b57610e0a610b6b565b5b610e1784828501610da9565b91505092915050565b60008060408385031215610e3757610e36610b66565b5b600083013567ffffffffffffffff811115610e5557610e54610b6b565b5b610e6185828601610da9565b9250506020610e7285828601610b91565b9150509250929050565b600082825260208201905092915050565b6000610e9882610bd3565b610ea28185610e7c565b9350610eb2818560208601610bef565b610ebb81610c19565b840191505092915050565b610ecf81610b70565b82525050565b60006040830160008301518482036000860152610ef28282610e8d565b9150506020830151610f076020860182610ec6565b508091505092915050565b60006020820190508181036000830152610f2c8184610ed5565b905092915050565b60008115159050919050565b610f4981610f34565b82525050565b6000602082019050610f646000830184610f40565b92915050565b6000602082019050610f7f6000830184610c63565b92915050565b7f4f6e6c79206368616972706572736f6e2063616e20646f20746861742e000000600082015250565b6000610fbb601d83610bde565b9150610fc682610f85565b602082019050919050565b60006020820190508181036000830152610fea81610fae565b9050919050565b7f456c656374696f6e2069732073746f707065642e000000000000000000000000600082015250565b6000611027601483610bde565b915061103282610ff1565b602082019050919050565b600060208201905081810360008301526110568161101a565b9050919050565b7f4e487b7100000000000000000000000000000000000000000000000000000000600052602260045260246000fd5b600060028204905060018216806110a457607f821691505b6020821081036110b7576110b661105d565b5b50919050565b600081905092915050565b60006110d382610bd3565b6110dd81856110bd565b93506110ed818560208601610bef565b80840191505092915050565b600061110582846110c8565b915081905092915050565b60008190508160005260206000209050919050565b60006020601f8301049050919050565b600082821b905092915050565b6000600883026111727fffffffffffffffffffffffffffffffffffffffffffffffffffffffffffffffff82611135565b61117c8683611135565b95508019841693508086168417925050509392505050565b6000819050919050565b60006111b96111b46111af84610b70565b611194565b610b70565b9050919050565b6000819050919050565b6111d38361119e565b6111e76111df826111c0565b848454611142565b825550505050565b600090565b6111fc6111ef565b6112078184846111ca565b505050565b5b8181101561122b576112206000826111f4565b60018101905061120d565b5050565b601f8211156112705761124181611110565b61124a84611125565b81016020851015611259578190505b61126d61126585611125565b83018261120c565b50505b505050565b600082821c905092915050565b600061129360001984600802611275565b1980831691505092915050565b60006112ac8383611282565b9150826002028217905092915050565b6112c582610bd3565b67ffffffffffffffff8111156112de576112dd610cac565b5b6112e8825461108c565b6112f382828561122f565b600060209050601f8311600181146113265760008415611314578287015190505b61131e85826112a0565b865550611386565b601f19841661133486611110565b60005b8281101561135c57848901518255600182019150602085019450602081019050611337565b868310156113795784890151611375601f891682611282565b8355505b6001600288020188555050505b505050505050565b7f456c656374696f6e2069732063757272656e746c792072756e6e696e672e0000600082015250565b60006113c4601e83610bde565b91506113cf8261138e565b602082019050919050565b600060208201905081810360008301526113f3816113b7565b9050919050565b7f566f7465722068617320616c726561647920766f7465642e0000000000000000600082015250565b6000611430601883610bde565b915061143b826113fa565b602082019050919050565b6000602082019050818103600083015261145f81611423565b9050919050565b7f4e487b7100000000000000000000000000000000000000000000000000000000600052603260045260246000fd5b7f4e487b7100000000000000000000000000000000000000000000000000000000600052601160045260246000fd5b60006114cf82610b70565b91507fffffffffffffffffffffffffffffffffffffffffffffffffffffffffffffffff820361150157611500611495565b5b600182019050919050565b60008154905061151b8161108c565b9050919050565b818103611530575050611608565b6115398261150c565b67ffffffffffffffff81111561155257611551610cac565b5b61155c825461108c565b61156782828561122f565b6000601f8311600181146115965760008415611584578287015490505b61158e85826112a0565b865550611601565b601f1984166115a487611110565b96506115af86611110565b60005b828110156115d7578489015482556001820191506001850194506020810190506115b2565b868310156115f457848901546115f0601f891682611282565b8355505b6001600288020188555050505b5050505050505b56fea2646970667358221220f53a4c56a4febff4123e32c9dc24113ae91cad503d2d5d24dc5f8918439f220d64736f6c63430008120033",
  "immutableReferences": {},
  "source": "// SPDX-License-Identifier: MIT\r\npragma solidity ^0.8.0;\r\n\r\ncontract Ballot{\r\n    address public chairperson;\r\n    bool public isElectionRunning;\r\n\r\n    modifier isChairperson{\r\n        require(msg.sender==chairperson, \"Only chairperson can do that.\");\r\n        _;\r\n    }\r\n    modifier checkRunningElection{\r\n        require(isElectionRunning, \"Election is stopped.\");\r\n        _;\r\n    }\r\n    modifier checkStoppedElection{\r\n        require(!isElectionRunning, \"Election is currently running.\");\r\n        _;\r\n    }\r\n    function startElection() public isChairperson checkStoppedElection{\r\n        isElectionRunning = true;\r\n        emit ElectionStarted();\r\n    }\r\n\r\n    function stopElection() public isChairperson checkRunningElection{\r\n        isElectionRunning = false;\r\n        emit ElectionEnded();\r\n    }\r\n\r\n    function checkIfChairperson() public view returns(bool){\r\n        return chairperson==msg.sender;\r\n    }\r\n    \r\n\r\n    // below candidate data and functions\r\n    struct Candidate {\r\n        string name;\r\n        uint voteCount;\r\n    }\r\n    // below variables help to keep track of the voted addresses and aadhaars\r\n    mapping (string => bool) candidateBoolMap;\r\n    Candidate[] public candidates ;\r\n\r\n    // checks if candidate exists already\r\n    modifier candidateDoesNotExist(string memory _name){\r\n        require(!candidateBoolMap[_name]);\r\n        _;\r\n    }\r\n\r\n    modifier indexInCandidatesBound(uint _index){\r\n        require(_index < candidates.length);\r\n        _;\r\n    }\r\n    modifier candidatesNotEmpty{\r\n        require(candidates.length > 0);\r\n        _;\r\n    }\r\n\r\n    // adds candidate to the list and map\r\n    function addCandidate(string memory _name) public candidateDoesNotExist(_name) isChairperson{\r\n        Candidate memory c = Candidate({name: _name, voteCount: 0});\r\n        candidates.push(c);\r\n        candidateBoolMap[_name] = true;\r\n    }\r\n\r\n    //function to get candidates array length i.e. number of candidates\r\n    function getCandidateLength() public view returns(uint){\r\n        return candidates.length;\r\n    }\r\n\r\n    // function increaseVote(uint _index) public indexInCandidatesBound(_index){\r\n    //     Candidate storage c = candidates[_index];\r\n    //     c.voteCount++;\r\n    //     candidates[_index] = c;\r\n    // }\r\n\r\n    function getWinner() public candidatesNotEmpty checkStoppedElection view returns (Candidate memory) {\r\n        uint maxCount = candidates[0].voteCount;\r\n        uint maxIndex = 0;\r\n        for (uint256 i = 1; i < candidates.length; i++) {\r\n            if(maxCount < candidates[i].voteCount){\r\n                maxCount = candidates[i].voteCount;\r\n                maxIndex = i;\r\n            }\r\n        }\r\n        return candidates[maxIndex];\r\n   }\r\n\r\n    // below  voter data and functions\r\n    // below maps help to keep track of the voted addresses and aadhaars\r\n    mapping (string => bool) voterAadharBoolMap;\r\n    mapping (address => bool) voterAddressBoolMap;\r\n\r\n    // below modifier checks that the voter has not already voted\r\n    modifier notVoted(string memory _aadhaar){\r\n        require(!voterAddressBoolMap[msg.sender] && !voterAadharBoolMap[_aadhaar], \"Voter has already voted.\");\r\n        _;\r\n    }\r\n\r\n    // function addVoter(string memory _aadhaar) public notVoted(_aadhaar){\r\n    //     voterAadharBoolMap[_aadhaar] = true;\r\n    //     voterAddressBoolMap[msg.sender] = true;\r\n    // }\r\n\r\n    function registerVote(string memory _aadhaar, uint _index) public notVoted(_aadhaar) indexInCandidatesBound(_index) checkRunningElection{\r\n        voterAadharBoolMap[_aadhaar] = true;\r\n        voterAddressBoolMap[msg.sender] = true;\r\n        Candidate storage c = candidates[_index];\r\n        c.voteCount++;\r\n        candidates[_index] = c;\r\n    }\r\n\r\n    constructor(){\r\n        chairperson = msg.sender;\r\n    }\r\n\r\n    event ElectionStarted();\r\n    event ElectionEnded();\r\n    \r\n}",
  "sourcePath": "/home/manav/Blockchain Lab/blockchain-project-group-1/truffle/contracts/Ballot.sol",
  "compiler": {
    "name": "solc",
    "version": "0.8.18+commit.87f61d96.Emscripten.clang"
  },
  "schemaVersion": "3.4.16",
  "updatedAt": "2024-02-25T17:13:28.158Z",
  "networkType": "ethereum",
  "devdoc": {
    "kind": "dev",
    "methods": {},
    "version": 1
  },
  "userdoc": {
    "kind": "user",
    "methods": {},
    "version": 1
  }
}