{
  "contractName": "Ballot",
  "abi": [
    {
      "inputs": [],
      "stateMutability": "nonpayable",
      "type": "constructor"
    },
    {
      "inputs": [
        {
          "internalType": "uint256",
          "name": "",
          "type": "uint256"
        }
      ],
      "name": "candidates",
      "outputs": [
        {
          "internalType": "string",
          "name": "name",
          "type": "string"
        },
        {
          "internalType": "uint256",
          "name": "voteCount",
          "type": "uint256"
        }
      ],
      "stateMutability": "view",
      "type": "function",
      "constant": true
    },
    {
      "inputs": [],
      "name": "chairperson",
      "outputs": [
        {
          "internalType": "address",
          "name": "",
          "type": "address"
        }
      ],
      "stateMutability": "view",
      "type": "function",
      "constant": true
    },
    {
      "inputs": [],
      "name": "isElectionRunning",
      "outputs": [
        {
          "internalType": "bool",
          "name": "",
          "type": "bool"
        }
      ],
      "stateMutability": "view",
      "type": "function",
      "constant": true
    },
    {
      "inputs": [],
      "name": "startElection",
      "outputs": [],
      "stateMutability": "nonpayable",
      "type": "function"
    },
    {
      "inputs": [],
      "name": "stopElection",
      "outputs": [],
      "stateMutability": "nonpayable",
      "type": "function"
    },
    {
      "inputs": [],
      "name": "checkIfChairperson",
      "outputs": [
        {
          "internalType": "bool",
          "name": "",
          "type": "bool"
        }
      ],
      "stateMutability": "view",
      "type": "function",
      "constant": true
    },
    {
      "inputs": [
        {
          "internalType": "string",
          "name": "_name",
          "type": "string"
        }
      ],
      "name": "addCandidate",
      "outputs": [],
      "stateMutability": "nonpayable",
      "type": "function"
    },
    {
      "inputs": [],
      "name": "getCandidateLength",
      "outputs": [
        {
          "internalType": "uint256",
          "name": "",
          "type": "uint256"
        }
      ],
      "stateMutability": "view",
      "type": "function",
      "constant": true
    },
    {
      "inputs": [],
      "name": "getWinner",
      "outputs": [
        {
          "components": [
            {
              "internalType": "string",
              "name": "name",
              "type": "string"
            },
            {
              "internalType": "uint256",
              "name": "voteCount",
              "type": "uint256"
            }
          ],
          "internalType": "struct Ballot.Candidate",
          "name": "",
          "type": "tuple"
        }
      ],
      "stateMutability": "view",
      "type": "function",
      "constant": true
    },
    {
      "inputs": [
        {
          "internalType": "string",
          "name": "_aadhaar",
          "type": "string"
        },
        {
          "internalType": "uint256",
          "name": "_index",
          "type": "uint256"
        }
      ],
      "name": "registerVote",
      "outputs": [],
      "stateMutability": "nonpayable",
      "type": "function"
    }
  ],
  "bytecode": "0x608060405234801561001057600080fd5b50336000806101000a81548173ffffffffffffffffffffffffffffffffffffffff021916908373ffffffffffffffffffffffffffffffffffffffff1602179055506115e8806100606000396000f3fe608060405234801561001057600080fd5b506004361061009e5760003560e01c8063872b714d11610066578063872b714d146101225780638e7ea5b21461013e578063e76d516e1461015c578063e80d44dd1461017a578063f7522a83146101985761009e565b80632df9feaa146100a35780632e4176cf146100ad5780633477ee2e146100cb578063462e91ec146100fc57806362d73eb814610118575b600080fd5b6100ab6101b6565b005b6100b56102af565b6040516100c29190610ae9565b60405180910390f35b6100e560048036038101906100e09190610b4e565b6102d3565b6040516100f3929190610c1a565b60405180910390f35b61011660048036038101906101119190610d7f565b61038f565b005b6101206104f7565b005b61013c60048036038101906101379190610dc8565b6105f2565b005b610146610831565b6040516101539190610eba565b60405180910390f35b610164610a18565b6040516101719190610ef7565b60405180910390f35b610182610a6e565b60405161018f9190610ef7565b60405180910390f35b6101a0610a81565b6040516101ad9190610f12565b60405180910390f35b60008054906101000a900473ffffffffffffffffffffffffffffffffffffffff1673ffffffffffffffffffffffffffffffffffffffff163373ffffffffffffffffffffffffffffffffffffffff1614610244576040517f08c379a000000000000000000000000000000000000000000000000000000000815260040161023b90610f79565b60405180910390fd5b600060149054906101000a900460ff16610293576040517f08c379a000000000000000000000000000000000000000000000000000000000815260040161028a90610fe5565b60405180910390fd5b60008060146101000a81548160ff021916908315150217905550565b60008054906101000a900473ffffffffffffffffffffffffffffffffffffffff1681565b600281815481106102e357600080fd5b906000526020600020906002020160009150905080600001805461030690611034565b80601f016020809104026020016040519081016040528092919081815260200182805461033290611034565b801561037f5780601f106103545761010080835404028352916020019161037f565b820191906000526020600020905b81548152906001019060200180831161036257829003601f168201915b5050505050908060010154905082565b806001816040516103a091906110a1565b908152602001604051809103902060009054906101000a900460ff16156103c657600080fd5b60008054906101000a900473ffffffffffffffffffffffffffffffffffffffff1673ffffffffffffffffffffffffffffffffffffffff163373ffffffffffffffffffffffffffffffffffffffff1614610454576040517f08c379a000000000000000000000000000000000000000000000000000000000815260040161044b90610f79565b60405180910390fd5b6000604051806040016040528084815260200160008152509050600281908060018154018082558091505060019003906000526020600020906002020160009091909190915060008201518160000190816104af9190611264565b50602082015181600101555050600180846040516104cd91906110a1565b908152602001604051809103902060006101000a81548160ff021916908315150217905550505050565b60008054906101000a900473ffffffffffffffffffffffffffffffffffffffff1673ffffffffffffffffffffffffffffffffffffffff163373ffffffffffffffffffffffffffffffffffffffff1614610585576040517f08c379a000000000000000000000000000000000000000000000000000000000815260040161057c90610f79565b60405180910390fd5b600060149054906101000a900460ff16156105d5576040517f08c379a00000000000000000000000000000000000000000000000000000000081526004016105cc90611382565b60405180910390fd5b6001600060146101000a81548160ff021916908315150217905550565b81600460003373ffffffffffffffffffffffffffffffffffffffff1673ffffffffffffffffffffffffffffffffffffffff16815260200190815260200160002060009054906101000a900460ff16158015610676575060038160405161065891906110a1565b908152602001604051809103902060009054906101000a900460ff16155b6106b5576040517f08c379a00000000000000000000000000000000000000000000000000000000081526004016106ac906113ee565b60405180910390fd5b8160028054905081106106c757600080fd5b600060149054906101000a900460ff16610716576040517f08c379a000000000000000000000000000000000000000000000000000000000815260040161070d90610fe5565b60405180910390fd5b600160038560405161072891906110a1565b908152602001604051809103902060006101000a81548160ff0219169083151502179055506001600460003373ffffffffffffffffffffffffffffffffffffffff1673ffffffffffffffffffffffffffffffffffffffff16815260200190815260200160002060006101000a81548160ff0219169083151502179055506000600284815481106107bb576107ba61140e565b5b906000526020600020906002020190508060010160008154809291906107e09061146c565b919050555080600285815481106107fa576107f961140e565b5b90600052602060002090600202016000820181600001908161081c91906114ca565b50600182015481600101559050505050505050565b610839610a8e565b60006002805490501161084b57600080fd5b600060149054906101000a900460ff161561089b576040517f08c379a000000000000000000000000000000000000000000000000000000000815260040161089290611382565b60405180910390fd5b600060026000815481106108b2576108b161140e565b5b9060005260206000209060020201600101549050600080600190505b60028054905081101561094757600281815481106108ef576108ee61140e565b5b906000526020600020906002020160010154831015610934576002818154811061091c5761091b61140e565b5b90600052602060002090600202016001015492508091505b808061093f9061146c565b9150506108ce565b506002818154811061095c5761095b61140e565b5b906000526020600020906002020160405180604001604052908160008201805461098590611034565b80601f01602080910402602001604051908101604052809291908181526020018280546109b190611034565b80156109fe5780601f106109d3576101008083540402835291602001916109fe565b820191906000526020600020905b8154815290600101906020018083116109e157829003601f168201915b505050505081526020016001820154815250509250505090565b60003373ffffffffffffffffffffffffffffffffffffffff1660008054906101000a900473ffffffffffffffffffffffffffffffffffffffff1673ffffffffffffffffffffffffffffffffffffffff1614905090565b600060149054906101000a900460ff1681565b6000600280549050905090565b604051806040016040528060608152602001600081525090565b600073ffffffffffffffffffffffffffffffffffffffff82169050919050565b6000610ad382610aa8565b9050919050565b610ae381610ac8565b82525050565b6000602082019050610afe6000830184610ada565b92915050565b6000604051905090565b600080fd5b600080fd5b6000819050919050565b610b2b81610b18565b8114610b3657600080fd5b50565b600081359050610b4881610b22565b92915050565b600060208284031215610b6457610b63610b0e565b5b6000610b7284828501610b39565b91505092915050565b600081519050919050565b600082825260208201905092915050565b60005b83811015610bb5578082015181840152602081019050610b9a565b60008484015250505050565b6000601f19601f8301169050919050565b6000610bdd82610b7b565b610be78185610b86565b9350610bf7818560208601610b97565b610c0081610bc1565b840191505092915050565b610c1481610b18565b82525050565b60006040820190508181036000830152610c348185610bd2565b9050610c436020830184610c0b565b9392505050565b600080fd5b600080fd5b7f4e487b7100000000000000000000000000000000000000000000000000000000600052604160045260246000fd5b610c8c82610bc1565b810181811067ffffffffffffffff82111715610cab57610caa610c54565b5b80604052505050565b6000610cbe610b04565b9050610cca8282610c83565b919050565b600067ffffffffffffffff821115610cea57610ce9610c54565b5b610cf382610bc1565b9050602081019050919050565b82818337600083830152505050565b6000610d22610d1d84610ccf565b610cb4565b905082815260208101848484011115610d3e57610d3d610c4f565b5b610d49848285610d00565b509392505050565b600082601f830112610d6657610d65610c4a565b5b8135610d76848260208601610d0f565b91505092915050565b600060208284031215610d9557610d94610b0e565b5b600082013567ffffffffffffffff811115610db357610db2610b13565b5b610dbf84828501610d51565b91505092915050565b60008060408385031215610ddf57610dde610b0e565b5b600083013567ffffffffffffffff811115610dfd57610dfc610b13565b5b610e0985828601610d51565b9250506020610e1a85828601610b39565b9150509250929050565b600082825260208201905092915050565b6000610e4082610b7b565b610e4a8185610e24565b9350610e5a818560208601610b97565b610e6381610bc1565b840191505092915050565b610e7781610b18565b82525050565b60006040830160008301518482036000860152610e9a8282610e35565b9150506020830151610eaf6020860182610e6e565b508091505092915050565b60006020820190508181036000830152610ed48184610e7d565b905092915050565b60008115159050919050565b610ef181610edc565b82525050565b6000602082019050610f0c6000830184610ee8565b92915050565b6000602082019050610f276000830184610c0b565b92915050565b7f4f6e6c79206368616972706572736f6e2063616e20646f20746861742e000000600082015250565b6000610f63601d83610b86565b9150610f6e82610f2d565b602082019050919050565b60006020820190508181036000830152610f9281610f56565b9050919050565b7f456c656374696f6e2069732073746f707065642e000000000000000000000000600082015250565b6000610fcf601483610b86565b9150610fda82610f99565b602082019050919050565b60006020820190508181036000830152610ffe81610fc2565b9050919050565b7f4e487b7100000000000000000000000000000000000000000000000000000000600052602260045260246000fd5b6000600282049050600182168061104c57607f821691505b60208210810361105f5761105e611005565b5b50919050565b600081905092915050565b600061107b82610b7b565b6110858185611065565b9350611095818560208601610b97565b80840191505092915050565b60006110ad8284611070565b915081905092915050565b60008190508160005260206000209050919050565b60006020601f8301049050919050565b600082821b905092915050565b60006008830261111a7fffffffffffffffffffffffffffffffffffffffffffffffffffffffffffffffff826110dd565b61112486836110dd565b95508019841693508086168417925050509392505050565b6000819050919050565b600061116161115c61115784610b18565b61113c565b610b18565b9050919050565b6000819050919050565b61117b83611146565b61118f61118782611168565b8484546110ea565b825550505050565b600090565b6111a4611197565b6111af818484611172565b505050565b5b818110156111d3576111c860008261119c565b6001810190506111b5565b5050565b601f821115611218576111e9816110b8565b6111f2846110cd565b81016020851015611201578190505b61121561120d856110cd565b8301826111b4565b50505b505050565b600082821c905092915050565b600061123b6000198460080261121d565b1980831691505092915050565b6000611254838361122a565b9150826002028217905092915050565b61126d82610b7b565b67ffffffffffffffff81111561128657611285610c54565b5b6112908254611034565b61129b8282856111d7565b600060209050601f8311600181146112ce57600084156112bc578287015190505b6112c68582611248565b86555061132e565b601f1984166112dc866110b8565b60005b82811015611304578489015182556001820191506020850194506020810190506112df565b86831015611321578489015161131d601f89168261122a565b8355505b6001600288020188555050505b505050505050565b7f456c656374696f6e2069732063757272656e746c792072756e6e696e672e0000600082015250565b600061136c601e83610b86565b915061137782611336565b602082019050919050565b6000602082019050818103600083015261139b8161135f565b9050919050565b7f566f7465722068617320616c726561647920766f7465642e0000000000000000600082015250565b60006113d8601883610b86565b91506113e3826113a2565b602082019050919050565b60006020820190508181036000830152611407816113cb565b9050919050565b7f4e487b7100000000000000000000000000000000000000000000000000000000600052603260045260246000fd5b7f4e487b7100000000000000000000000000000000000000000000000000000000600052601160045260246000fd5b600061147782610b18565b91507fffffffffffffffffffffffffffffffffffffffffffffffffffffffffffffffff82036114a9576114a861143d565b5b600182019050919050565b6000815490506114c381611034565b9050919050565b8181036114d85750506115b0565b6114e1826114b4565b67ffffffffffffffff8111156114fa576114f9610c54565b5b6115048254611034565b61150f8282856111d7565b6000601f83116001811461153e576000841561152c578287015490505b6115368582611248565b8655506115a9565b601f19841661154c876110b8565b9650611557866110b8565b60005b8281101561157f5784890154825560018201915060018501945060208101905061155a565b8683101561159c5784890154611598601f89168261122a565b8355505b6001600288020188555050505b5050505050505b56fea2646970667358221220e0b343d41a0f7ab4f880c55f398581b3680577e817024ee02ee3b80a2e026e6964736f6c63430008120033",
  "immutableReferences": {},
  "source": "// SPDX-License-Identifier: MIT\r\npragma solidity ^0.8.0;\r\n\r\ncontract Ballot{\r\n    address public chairperson;\r\n    bool public isElectionRunning;\r\n\r\n    modifier isChairperson{\r\n        require(msg.sender==chairperson, \"Only chairperson can do that.\");\r\n        _;\r\n    }\r\n    modifier checkRunningElection{\r\n        require(isElectionRunning, \"Election is stopped.\");\r\n        _;\r\n    }\r\n    modifier checkStoppedElection{\r\n        require(!isElectionRunning, \"Election is currently running.\");\r\n        _;\r\n    }\r\n    function startElection() public isChairperson checkStoppedElection{\r\n        isElectionRunning = true;\r\n    }\r\n\r\n    function stopElection() public isChairperson checkRunningElection{\r\n        isElectionRunning = false;\r\n    }\r\n\r\n    function checkIfChairperson() public view returns(bool){\r\n        return chairperson==msg.sender;\r\n    }\r\n    \r\n\r\n    // below candidate data and functions\r\n    struct Candidate {\r\n        string name;\r\n        uint voteCount;\r\n    }\r\n    // below variables help to keep track of the voted addresses and aadhaars\r\n    mapping (string => bool) candidateBoolMap;\r\n    Candidate[] public candidates ;\r\n\r\n    // checks if candidate exists already\r\n    modifier candidateDoesNotExist(string memory _name){\r\n        require(!candidateBoolMap[_name]);\r\n        _;\r\n    }\r\n\r\n    modifier indexInCandidatesBound(uint _index){\r\n        require(_index < candidates.length);\r\n        _;\r\n    }\r\n    modifier candidatesNotEmpty{\r\n        require(candidates.length > 0);\r\n        _;\r\n    }\r\n\r\n    // adds candidate to the list and map\r\n    function addCandidate(string memory _name) public candidateDoesNotExist(_name) isChairperson{\r\n        Candidate memory c = Candidate({name: _name, voteCount: 0});\r\n        candidates.push(c);\r\n        candidateBoolMap[_name] = true;\r\n    }\r\n\r\n    //function to get candidates array length i.e. number of candidates\r\n    function getCandidateLength() public view returns(uint){\r\n        return candidates.length;\r\n    }\r\n\r\n    // function increaseVote(uint _index) public indexInCandidatesBound(_index){\r\n    //     Candidate storage c = candidates[_index];\r\n    //     c.voteCount++;\r\n    //     candidates[_index] = c;\r\n    // }\r\n\r\n    function getWinner() public candidatesNotEmpty checkStoppedElection view returns (Candidate memory) {\r\n        uint maxCount = candidates[0].voteCount;\r\n        uint maxIndex = 0;\r\n        for (uint256 i = 1; i < candidates.length; i++) {\r\n            if(maxCount < candidates[i].voteCount){\r\n                maxCount = candidates[i].voteCount;\r\n                maxIndex = i;\r\n            }\r\n        }\r\n        return candidates[maxIndex];\r\n   }\r\n\r\n    // below  voter data and functions\r\n    // below maps help to keep track of the voted addresses and aadhaars\r\n    mapping (string => bool) voterAadharBoolMap;\r\n    mapping (address => bool) voterAddressBoolMap;\r\n\r\n    // below modifier checks that the voter has not already voted\r\n    modifier notVoted(string memory _aadhaar){\r\n        require(!voterAddressBoolMap[msg.sender] && !voterAadharBoolMap[_aadhaar], \"Voter has already voted.\");\r\n        _;\r\n    }\r\n\r\n    // function addVoter(string memory _aadhaar) public notVoted(_aadhaar){\r\n    //     voterAadharBoolMap[_aadhaar] = true;\r\n    //     voterAddressBoolMap[msg.sender] = true;\r\n    // }\r\n\r\n    function registerVote(string memory _aadhaar, uint _index) public notVoted(_aadhaar) indexInCandidatesBound(_index) checkRunningElection{\r\n        voterAadharBoolMap[_aadhaar] = true;\r\n        voterAddressBoolMap[msg.sender] = true;\r\n        Candidate storage c = candidates[_index];\r\n        c.voteCount++;\r\n        candidates[_index] = c;\r\n    }\r\n\r\n    constructor(){\r\n        chairperson = msg.sender;\r\n    }\r\n    \r\n}",
  "sourcePath": "/home/manav/Blockchain Lab/blockchain-project-group-1/truffle/contracts/Ballot.sol",
  "compiler": {
    "name": "solc",
    "version": "0.8.18+commit.87f61d96.Emscripten.clang"
  },
  "schemaVersion": "3.4.16",
  "updatedAt": "2024-01-31T17:35:30.649Z",
  "networkType": "ethereum",
  "devdoc": {
    "kind": "dev",
    "methods": {},
    "version": 1
  },
  "userdoc": {
    "kind": "user",
    "methods": {},
    "version": 1
  }
}