{
  "contractName": "Ballot",
  "abi": [
    {
      "inputs": [],
      "stateMutability": "nonpayable",
      "type": "constructor"
    },
    {
      "inputs": [
        {
          "internalType": "uint256",
          "name": "",
          "type": "uint256"
        }
      ],
      "name": "candidates",
      "outputs": [
        {
          "internalType": "string",
          "name": "name",
          "type": "string"
        },
        {
          "internalType": "uint256",
          "name": "voteCount",
          "type": "uint256"
        }
      ],
      "stateMutability": "view",
      "type": "function",
      "constant": true
    },
    {
      "inputs": [],
      "name": "chairperson",
      "outputs": [
        {
          "internalType": "address",
          "name": "",
          "type": "address"
        }
      ],
      "stateMutability": "view",
      "type": "function",
      "constant": true
    },
    {
      "inputs": [],
      "name": "isElectionRunning",
      "outputs": [
        {
          "internalType": "bool",
          "name": "",
          "type": "bool"
        }
      ],
      "stateMutability": "view",
      "type": "function",
      "constant": true
    },
    {
      "inputs": [],
      "name": "startElection",
      "outputs": [],
      "stateMutability": "nonpayable",
      "type": "function"
    },
    {
      "inputs": [],
      "name": "stopElection",
      "outputs": [],
      "stateMutability": "nonpayable",
      "type": "function"
    },
    {
      "inputs": [
        {
          "internalType": "string",
          "name": "_name",
          "type": "string"
        }
      ],
      "name": "addCandidate",
      "outputs": [],
      "stateMutability": "nonpayable",
      "type": "function"
    },
    {
      "inputs": [],
      "name": "getWinner",
      "outputs": [
        {
          "components": [
            {
              "internalType": "string",
              "name": "name",
              "type": "string"
            },
            {
              "internalType": "uint256",
              "name": "voteCount",
              "type": "uint256"
            }
          ],
          "internalType": "struct Ballot.Candidate",
          "name": "",
          "type": "tuple"
        }
      ],
      "stateMutability": "view",
      "type": "function",
      "constant": true
    },
    {
      "inputs": [
        {
          "internalType": "string",
          "name": "_aadhaar",
          "type": "string"
        },
        {
          "internalType": "uint256",
          "name": "_index",
          "type": "uint256"
        }
      ],
      "name": "registerVote",
      "outputs": [],
      "stateMutability": "nonpayable",
      "type": "function"
    }
  ],
  "bytecode": "0x608060405234801561001057600080fd5b50336000806101000a81548173ffffffffffffffffffffffffffffffffffffffff021916908373ffffffffffffffffffffffffffffffffffffffff160217905550611518806100606000396000f3fe608060405234801561001057600080fd5b50600436106100885760003560e01c806362d73eb81161005b57806362d73eb814610102578063872b714d1461010c5780638e7ea5b214610128578063e80d44dd1461014657610088565b80632df9feaa1461008d5780632e4176cf146100975780633477ee2e146100b5578063462e91ec146100e6575b600080fd5b610095610164565b005b61009f61025d565b6040516100ac9190610a34565b60405180910390f35b6100cf60048036038101906100ca9190610a99565b610281565b6040516100dd929190610b65565b60405180910390f35b61010060048036038101906100fb9190610cca565b61033d565b005b61010a6104a5565b005b61012660048036038101906101219190610d13565b6105a0565b005b6101306107df565b60405161013d9190610e05565b60405180910390f35b61014e6109c6565b60405161015b9190610e42565b60405180910390f35b60008054906101000a900473ffffffffffffffffffffffffffffffffffffffff1673ffffffffffffffffffffffffffffffffffffffff163373ffffffffffffffffffffffffffffffffffffffff16146101f2576040517f08c379a00000000000000000000000000000000000000000000000000000000081526004016101e990610ea9565b60405180910390fd5b600060149054906101000a900460ff16610241576040517f08c379a000000000000000000000000000000000000000000000000000000000815260040161023890610f15565b60405180910390fd5b60008060146101000a81548160ff021916908315150217905550565b60008054906101000a900473ffffffffffffffffffffffffffffffffffffffff1681565b6002818154811061029157600080fd5b90600052602060002090600202016000915090508060000180546102b490610f64565b80601f01602080910402602001604051908101604052809291908181526020018280546102e090610f64565b801561032d5780601f106103025761010080835404028352916020019161032d565b820191906000526020600020905b81548152906001019060200180831161031057829003601f168201915b5050505050908060010154905082565b8060018160405161034e9190610fd1565b908152602001604051809103902060009054906101000a900460ff161561037457600080fd5b60008054906101000a900473ffffffffffffffffffffffffffffffffffffffff1673ffffffffffffffffffffffffffffffffffffffff163373ffffffffffffffffffffffffffffffffffffffff1614610402576040517f08c379a00000000000000000000000000000000000000000000000000000000081526004016103f990610ea9565b60405180910390fd5b60006040518060400160405280848152602001600081525090506002819080600181540180825580915050600190039060005260206000209060020201600090919091909150600082015181600001908161045d9190611194565b506020820151816001015550506001808460405161047b9190610fd1565b908152602001604051809103902060006101000a81548160ff021916908315150217905550505050565b60008054906101000a900473ffffffffffffffffffffffffffffffffffffffff1673ffffffffffffffffffffffffffffffffffffffff163373ffffffffffffffffffffffffffffffffffffffff1614610533576040517f08c379a000000000000000000000000000000000000000000000000000000000815260040161052a90610ea9565b60405180910390fd5b600060149054906101000a900460ff1615610583576040517f08c379a000000000000000000000000000000000000000000000000000000000815260040161057a906112b2565b60405180910390fd5b6001600060146101000a81548160ff021916908315150217905550565b81600460003373ffffffffffffffffffffffffffffffffffffffff1673ffffffffffffffffffffffffffffffffffffffff16815260200190815260200160002060009054906101000a900460ff1615801561062457506003816040516106069190610fd1565b908152602001604051809103902060009054906101000a900460ff16155b610663576040517f08c379a000000000000000000000000000000000000000000000000000000000815260040161065a9061131e565b60405180910390fd5b81600280549050811061067557600080fd5b600060149054906101000a900460ff166106c4576040517f08c379a00000000000000000000000000000000000000000000000000000000081526004016106bb90610f15565b60405180910390fd5b60016003856040516106d69190610fd1565b908152602001604051809103902060006101000a81548160ff0219169083151502179055506001600460003373ffffffffffffffffffffffffffffffffffffffff1673ffffffffffffffffffffffffffffffffffffffff16815260200190815260200160002060006101000a81548160ff0219169083151502179055506000600284815481106107695761076861133e565b5b9060005260206000209060020201905080600101600081548092919061078e9061139c565b919050555080600285815481106107a8576107a761133e565b5b9060005260206000209060020201600082018160000190816107ca91906113fa565b50600182015481600101559050505050505050565b6107e76109d9565b6000600280549050116107f957600080fd5b600060149054906101000a900460ff1615610849576040517f08c379a0000000000000000000000000000000000000000000000000000000008152600401610840906112b2565b60405180910390fd5b600060026000815481106108605761085f61133e565b5b9060005260206000209060020201600101549050600080600190505b6002805490508110156108f5576002818154811061089d5761089c61133e565b5b9060005260206000209060020201600101548310156108e257600281815481106108ca576108c961133e565b5b90600052602060002090600202016001015492508091505b80806108ed9061139c565b91505061087c565b506002818154811061090a5761090961133e565b5b906000526020600020906002020160405180604001604052908160008201805461093390610f64565b80601f016020809104026020016040519081016040528092919081815260200182805461095f90610f64565b80156109ac5780601f10610981576101008083540402835291602001916109ac565b820191906000526020600020905b81548152906001019060200180831161098f57829003601f168201915b505050505081526020016001820154815250509250505090565b600060149054906101000a900460ff1681565b604051806040016040528060608152602001600081525090565b600073ffffffffffffffffffffffffffffffffffffffff82169050919050565b6000610a1e826109f3565b9050919050565b610a2e81610a13565b82525050565b6000602082019050610a496000830184610a25565b92915050565b6000604051905090565b600080fd5b600080fd5b6000819050919050565b610a7681610a63565b8114610a8157600080fd5b50565b600081359050610a9381610a6d565b92915050565b600060208284031215610aaf57610aae610a59565b5b6000610abd84828501610a84565b91505092915050565b600081519050919050565b600082825260208201905092915050565b60005b83811015610b00578082015181840152602081019050610ae5565b60008484015250505050565b6000601f19601f8301169050919050565b6000610b2882610ac6565b610b328185610ad1565b9350610b42818560208601610ae2565b610b4b81610b0c565b840191505092915050565b610b5f81610a63565b82525050565b60006040820190508181036000830152610b7f8185610b1d565b9050610b8e6020830184610b56565b9392505050565b600080fd5b600080fd5b7f4e487b7100000000000000000000000000000000000000000000000000000000600052604160045260246000fd5b610bd782610b0c565b810181811067ffffffffffffffff82111715610bf657610bf5610b9f565b5b80604052505050565b6000610c09610a4f565b9050610c158282610bce565b919050565b600067ffffffffffffffff821115610c3557610c34610b9f565b5b610c3e82610b0c565b9050602081019050919050565b82818337600083830152505050565b6000610c6d610c6884610c1a565b610bff565b905082815260208101848484011115610c8957610c88610b9a565b5b610c94848285610c4b565b509392505050565b600082601f830112610cb157610cb0610b95565b5b8135610cc1848260208601610c5a565b91505092915050565b600060208284031215610ce057610cdf610a59565b5b600082013567ffffffffffffffff811115610cfe57610cfd610a5e565b5b610d0a84828501610c9c565b91505092915050565b60008060408385031215610d2a57610d29610a59565b5b600083013567ffffffffffffffff811115610d4857610d47610a5e565b5b610d5485828601610c9c565b9250506020610d6585828601610a84565b9150509250929050565b600082825260208201905092915050565b6000610d8b82610ac6565b610d958185610d6f565b9350610da5818560208601610ae2565b610dae81610b0c565b840191505092915050565b610dc281610a63565b82525050565b60006040830160008301518482036000860152610de58282610d80565b9150506020830151610dfa6020860182610db9565b508091505092915050565b60006020820190508181036000830152610e1f8184610dc8565b905092915050565b60008115159050919050565b610e3c81610e27565b82525050565b6000602082019050610e576000830184610e33565b92915050565b7f4f6e6c79206368616972706572736f6e2063616e20646f20746861742e000000600082015250565b6000610e93601d83610ad1565b9150610e9e82610e5d565b602082019050919050565b60006020820190508181036000830152610ec281610e86565b9050919050565b7f456c656374696f6e2069732073746f707065642e000000000000000000000000600082015250565b6000610eff601483610ad1565b9150610f0a82610ec9565b602082019050919050565b60006020820190508181036000830152610f2e81610ef2565b9050919050565b7f4e487b7100000000000000000000000000000000000000000000000000000000600052602260045260246000fd5b60006002820490506001821680610f7c57607f821691505b602082108103610f8f57610f8e610f35565b5b50919050565b600081905092915050565b6000610fab82610ac6565b610fb58185610f95565b9350610fc5818560208601610ae2565b80840191505092915050565b6000610fdd8284610fa0565b915081905092915050565b60008190508160005260206000209050919050565b60006020601f8301049050919050565b600082821b905092915050565b60006008830261104a7fffffffffffffffffffffffffffffffffffffffffffffffffffffffffffffffff8261100d565b611054868361100d565b95508019841693508086168417925050509392505050565b6000819050919050565b600061109161108c61108784610a63565b61106c565b610a63565b9050919050565b6000819050919050565b6110ab83611076565b6110bf6110b782611098565b84845461101a565b825550505050565b600090565b6110d46110c7565b6110df8184846110a2565b505050565b5b81811015611103576110f86000826110cc565b6001810190506110e5565b5050565b601f8211156111485761111981610fe8565b61112284610ffd565b81016020851015611131578190505b61114561113d85610ffd565b8301826110e4565b50505b505050565b600082821c905092915050565b600061116b6000198460080261114d565b1980831691505092915050565b6000611184838361115a565b9150826002028217905092915050565b61119d82610ac6565b67ffffffffffffffff8111156111b6576111b5610b9f565b5b6111c08254610f64565b6111cb828285611107565b600060209050601f8311600181146111fe57600084156111ec578287015190505b6111f68582611178565b86555061125e565b601f19841661120c86610fe8565b60005b828110156112345784890151825560018201915060208501945060208101905061120f565b86831015611251578489015161124d601f89168261115a565b8355505b6001600288020188555050505b505050505050565b7f456c656374696f6e2069732063757272656e746c792072756e6e696e672e0000600082015250565b600061129c601e83610ad1565b91506112a782611266565b602082019050919050565b600060208201905081810360008301526112cb8161128f565b9050919050565b7f566f7465722068617320616c726561647920766f7465642e0000000000000000600082015250565b6000611308601883610ad1565b9150611313826112d2565b602082019050919050565b60006020820190508181036000830152611337816112fb565b9050919050565b7f4e487b7100000000000000000000000000000000000000000000000000000000600052603260045260246000fd5b7f4e487b7100000000000000000000000000000000000000000000000000000000600052601160045260246000fd5b60006113a782610a63565b91507fffffffffffffffffffffffffffffffffffffffffffffffffffffffffffffffff82036113d9576113d861136d565b5b600182019050919050565b6000815490506113f381610f64565b9050919050565b8181036114085750506114e0565b611411826113e4565b67ffffffffffffffff81111561142a57611429610b9f565b5b6114348254610f64565b61143f828285611107565b6000601f83116001811461146e576000841561145c578287015490505b6114668582611178565b8655506114d9565b601f19841661147c87610fe8565b965061148786610fe8565b60005b828110156114af5784890154825560018201915060018501945060208101905061148a565b868310156114cc57848901546114c8601f89168261115a565b8355505b6001600288020188555050505b5050505050505b56fea2646970667358221220ad59c9fe2a0a7d3291e73cbad393afcf1a3847096beb87759089361b2dbb5f6464736f6c63430008120033",
  "immutableReferences": {},
  "source": "// SPDX-License-Identifier: MIT\r\npragma solidity ^0.8.0;\r\n\r\ncontract Ballot{\r\n    address public chairperson;\r\n    bool public isElectionRunning;\r\n\r\n    modifier isChairperson{\r\n        require(msg.sender==chairperson, \"Only chairperson can do that.\");\r\n        _;\r\n    }\r\n    modifier checkRunningElection{\r\n        require(isElectionRunning, \"Election is stopped.\");\r\n        _;\r\n    }\r\n    modifier checkStoppedElection{\r\n        require(!isElectionRunning, \"Election is currently running.\");\r\n        _;\r\n    }\r\n    function startElection() public isChairperson checkStoppedElection{\r\n        isElectionRunning = true;\r\n    }\r\n\r\n    function stopElection() public isChairperson checkRunningElection{\r\n        isElectionRunning = false;\r\n    }\r\n    \r\n\r\n    // below candidate data and functions\r\n    struct Candidate {\r\n        string name;\r\n        uint voteCount;\r\n    }\r\n    // below variables help to keep track of the voted addresses and aadhaars\r\n    mapping (string => bool) candidateBoolMap;\r\n    Candidate[] public candidates ;\r\n\r\n    // checks if candidate exists already\r\n    modifier candidateDoesNotExist(string memory _name){\r\n        require(!candidateBoolMap[_name]);\r\n        _;\r\n    }\r\n\r\n    modifier indexInCandidatesBound(uint _index){\r\n        require(_index < candidates.length);\r\n        _;\r\n    }\r\n    modifier candidatesNotEmpty{\r\n        require(candidates.length > 0);\r\n        _;\r\n    }\r\n\r\n    // adds candidate to the list and map\r\n    function addCandidate(string memory _name) public candidateDoesNotExist(_name) isChairperson{\r\n        Candidate memory c = Candidate({name: _name, voteCount: 0});\r\n        candidates.push(c);\r\n        candidateBoolMap[_name] = true;\r\n    }\r\n\r\n    // function increaseVote(uint _index) public indexInCandidatesBound(_index){\r\n    //     Candidate storage c = candidates[_index];\r\n    //     c.voteCount++;\r\n    //     candidates[_index] = c;\r\n    // }\r\n\r\n    function getWinner() public candidatesNotEmpty checkStoppedElection view returns (Candidate memory) {\r\n        uint maxCount = candidates[0].voteCount;\r\n        uint maxIndex = 0;\r\n        for (uint256 i = 1; i < candidates.length; i++) {\r\n            if(maxCount < candidates[i].voteCount){\r\n                maxCount = candidates[i].voteCount;\r\n                maxIndex = i;\r\n            }\r\n        }\r\n        return candidates[maxIndex];\r\n   }\r\n\r\n    // below  voter data and functions\r\n    // below maps help to keep track of the voted addresses and aadhaars\r\n    mapping (string => bool) voterAadharBoolMap;\r\n    mapping (address => bool) voterAddressBoolMap;\r\n\r\n    // below modifier checks that the voter has not already voted\r\n    modifier notVoted(string memory _aadhaar){\r\n        require(!voterAddressBoolMap[msg.sender] && !voterAadharBoolMap[_aadhaar], \"Voter has already voted.\");\r\n        _;\r\n    }\r\n\r\n    // function addVoter(string memory _aadhaar) public notVoted(_aadhaar){\r\n    //     voterAadharBoolMap[_aadhaar] = true;\r\n    //     voterAddressBoolMap[msg.sender] = true;\r\n    // }\r\n\r\n    function registerVote(string memory _aadhaar, uint _index) public notVoted(_aadhaar) indexInCandidatesBound(_index) checkRunningElection{\r\n        voterAadharBoolMap[_aadhaar] = true;\r\n        voterAddressBoolMap[msg.sender] = true;\r\n        Candidate storage c = candidates[_index];\r\n        c.voteCount++;\r\n        candidates[_index] = c;\r\n    }\r\n\r\n    constructor(){\r\n        chairperson = msg.sender;\r\n    }\r\n    \r\n}",
  "sourcePath": "/home/manav/Blockchain Lab/blockchain-project-group-1/truffle/contracts/Ballot.sol",
  "compiler": {
    "name": "solc",
    "version": "0.8.18+commit.87f61d96.Emscripten.clang"
  },
  "schemaVersion": "3.4.16",
  "updatedAt": "2024-01-29T17:48:37.703Z",
  "networkType": "ethereum",
  "devdoc": {
    "kind": "dev",
    "methods": {},
    "version": 1
  },
  "userdoc": {
    "kind": "user",
    "methods": {},
    "version": 1
  }
}