{
  "contractName": "ElectoralPoll",
  "abi": [
    {
      "inputs": [
        {
          "internalType": "address",
          "name": "_chairperson",
          "type": "address"
        }
      ],
      "stateMutability": "nonpayable",
      "type": "constructor"
    },
    {
      "anonymous": false,
      "inputs": [
        {
          "indexed": false,
          "internalType": "uint256",
          "name": "winnerCount",
          "type": "uint256"
        }
      ],
      "name": "ElectionEnded",
      "type": "event"
    },
    {
      "anonymous": false,
      "inputs": [],
      "name": "ElectionStarted",
      "type": "event"
    },
    {
      "anonymous": false,
      "inputs": [
        {
          "indexed": false,
          "internalType": "string",
          "name": "name",
          "type": "string"
        },
        {
          "indexed": false,
          "internalType": "uint256",
          "name": "newCount",
          "type": "uint256"
        }
      ],
      "name": "Voted",
      "type": "event"
    },
    {
      "inputs": [
        {
          "internalType": "uint256",
          "name": "",
          "type": "uint256"
        }
      ],
      "name": "candidates",
      "outputs": [
        {
          "internalType": "string",
          "name": "name",
          "type": "string"
        },
        {
          "internalType": "uint256",
          "name": "voteCount",
          "type": "uint256"
        }
      ],
      "stateMutability": "view",
      "type": "function"
    },
    {
      "inputs": [],
      "name": "status",
      "outputs": [
        {
          "internalType": "enum Status",
          "name": "",
          "type": "uint8"
        }
      ],
      "stateMutability": "view",
      "type": "function"
    },
    {
      "inputs": [
        {
          "internalType": "uint256",
          "name": "",
          "type": "uint256"
        }
      ],
      "name": "winners",
      "outputs": [
        {
          "internalType": "string",
          "name": "name",
          "type": "string"
        },
        {
          "internalType": "uint256",
          "name": "voteCount",
          "type": "uint256"
        }
      ],
      "stateMutability": "view",
      "type": "function"
    },
    {
      "inputs": [],
      "name": "startElection",
      "outputs": [],
      "stateMutability": "nonpayable",
      "type": "function"
    },
    {
      "inputs": [],
      "name": "stopElection",
      "outputs": [],
      "stateMutability": "nonpayable",
      "type": "function"
    },
    {
      "inputs": [
        {
          "internalType": "string",
          "name": "_name",
          "type": "string"
        }
      ],
      "name": "addCandidate",
      "outputs": [],
      "stateMutability": "nonpayable",
      "type": "function"
    },
    {
      "inputs": [
        {
          "internalType": "uint256",
          "name": "_index",
          "type": "uint256"
        },
        {
          "internalType": "string",
          "name": "_aadhaar",
          "type": "string"
        }
      ],
      "name": "delegateVote",
      "outputs": [],
      "stateMutability": "nonpayable",
      "type": "function"
    },
    {
      "inputs": [],
      "name": "getCandidatesLength",
      "outputs": [
        {
          "internalType": "uint256",
          "name": "",
          "type": "uint256"
        }
      ],
      "stateMutability": "view",
      "type": "function"
    }
  ],
  "bytecode": "0x60a06040523480156200001157600080fd5b5060405162001ae738038062001ae7833981810160405281019062000037919062000109565b8073ffffffffffffffffffffffffffffffffffffffff1660808173ffffffffffffffffffffffffffffffffffffffff168152505060008060006101000a81548160ff021916908360028111156200009357620000926200013b565b5b0217905550506200016a565b600080fd5b600073ffffffffffffffffffffffffffffffffffffffff82169050919050565b6000620000d182620000a4565b9050919050565b620000e381620000c4565b8114620000ef57600080fd5b50565b6000815190506200010381620000d8565b92915050565b6000602082840312156200012257620001216200009f565b5b60006200013284828501620000f2565b91505092915050565b7f4e487b7100000000000000000000000000000000000000000000000000000000600052602160045260246000fd5b6080516119536200019460003960008181610197015281816105400152610adf01526119536000f3fe608060405234801561001057600080fd5b50600436106100885760003560e01c8063462e91ec1161005b578063462e91ec146101045780635ef1c1231461012057806362d73eb81461013c578063a2fb11751461014657610088565b80631859df651461008d578063200d2ed2146100ab5780632df9feaa146100c95780633477ee2e146100d3575b600080fd5b610095610177565b6040516100a29190610d54565b60405180910390f35b6100b3610184565b6040516100c09190610de6565b60405180910390f35b6100d1610195565b005b6100ed60048036038101906100e89190610e41565b610482565b6040516100fb929190610efe565b60405180910390f35b61011e60048036038101906101199190611063565b61053e565b005b61013a600480360381019061013591906110ac565b610751565b005b610144610add565b005b610160600480360381019061015b9190610e41565b610c7f565b60405161016e929190610efe565b60405180910390f35b6000600180549050905090565b60008054906101000a900460ff1681565b7f000000000000000000000000000000000000000000000000000000000000000073ffffffffffffffffffffffffffffffffffffffff163373ffffffffffffffffffffffffffffffffffffffff1614610223576040517f08c379a000000000000000000000000000000000000000000000000000000000815260040161021a90611154565b60405180910390fd5b6001600281111561023757610236610d6f565b5b60008054906101000a900460ff16600281111561025757610256610d6f565b5b14610297576040517f08c379a000000000000000000000000000000000000000000000000000000000815260040161028e906111c0565b60405180910390fd5b6000600180549050116102df576040517f08c379a00000000000000000000000000000000000000000000000000000000081526004016102d69061122c565b60405180910390fd5b60026000806101000a81548160ff0219169083600281111561030457610303610d6f565b5b02179055506000805b60018054905081101561038357816001828154811061032f5761032e61124c565b5b9060005260206000209060020201600101541115610370576001818154811061035b5761035a61124c565b5b90600052602060002090600202016001015491505b808061037b906112aa565b91505061030d565b5060005b6001805490508110156104425781600182815481106103a9576103a861124c565b5b9060005260206000209060020201600101540361042f576003600182815481106103d6576103d561124c565b5b90600052602060002090600202019080600181540180825580915050600190039060005260206000209060020201600090919091909150600082018160000190816104219190611514565b506001820154816001015550505b808061043a906112aa565b915050610387565b507f562cd572b2ba3b666cd989fc4ca98419ec81e75f04528df9d9d76fdb7807ee716003805490506040516104779190610d54565b60405180910390a150565b6001818154811061049257600080fd5b90600052602060002090600202016000915090508060000180546104b590611321565b80601f01602080910402602001604051908101604052809291908181526020018280546104e190611321565b801561052e5780601f106105035761010080835404028352916020019161052e565b820191906000526020600020905b81548152906001019060200180831161051157829003601f168201915b5050505050908060010154905082565b7f000000000000000000000000000000000000000000000000000000000000000073ffffffffffffffffffffffffffffffffffffffff163373ffffffffffffffffffffffffffffffffffffffff16146105cc576040517f08c379a00000000000000000000000000000000000000000000000000000000081526004016105c390611154565b60405180910390fd5b600060028111156105e0576105df610d6f565b5b60008054906101000a900460ff166002811115610600576105ff610d6f565b5b14610640576040517f08c379a000000000000000000000000000000000000000000000000000000000815260040161063790611648565b60405180910390fd5b8060028160405161065191906116a4565b908152602001604051809103902060009054906101000a900460ff16156106ad576040517f08c379a00000000000000000000000000000000000000000000000000000000081526004016106a49061172d565b60405180910390fd5b600060405180604001604052808481526020016000815250905060018190806001815401808255809150506001900390600052602060002090600202016000909190919091506000820151816000019081610708919061174d565b50602082015181600101555050600160028460405161072791906116a4565b908152602001604051809103902060006101000a81548160ff021916908315150217905550505050565b8160018054905081108015610767575060008110155b6107a6576040517f08c379a000000000000000000000000000000000000000000000000000000000815260040161079d9061186b565b60405180910390fd5b600160028111156107ba576107b9610d6f565b5b60008054906101000a900460ff1660028111156107da576107d9610d6f565b5b1461081a576040517f08c379a0000000000000000000000000000000000000000000000000000000008152600401610811906111c0565b60405180910390fd5b81600460003373ffffffffffffffffffffffffffffffffffffffff1673ffffffffffffffffffffffffffffffffffffffff16815260200190815260200160002060009054906101000a900460ff1615801561089e575060058160405161088091906116a4565b908152602001604051809103902060009054906101000a900460ff16155b6108dd576040517f08c379a00000000000000000000000000000000000000000000000000000000081526004016108d4906118fd565b60405180910390fd5b60016005846040516108ef91906116a4565b908152602001604051809103902060006101000a81548160ff0219169083151502179055506001600460003373ffffffffffffffffffffffffffffffffffffffff1673ffffffffffffffffffffffffffffffffffffffff16815260200190815260200160002060006101000a81548160ff0219169083151502179055506000600185815481106109825761098161124c565b5b90600052602060002090600202016040518060400160405290816000820180546109ab90611321565b80601f01602080910402602001604051908101604052809291908181526020018280546109d790611321565b8015610a245780601f106109f957610100808354040283529160200191610a24565b820191906000526020600020905b815481529060010190602001808311610a0757829003601f168201915b505050505081526020016001820154815250509050806020018051809190610a4b906112aa565b815250508060018681548110610a6457610a6361124c565b5b90600052602060002090600202016000820151816000019081610a87919061174d565b50602082015181600101559050507f82ea01a4479f27996bbe8de24f4c8d962035fe2f32a2b130c8c9ca593ab91aa881600001518260200151604051610ace929190610efe565b60405180910390a15050505050565b7f000000000000000000000000000000000000000000000000000000000000000073ffffffffffffffffffffffffffffffffffffffff163373ffffffffffffffffffffffffffffffffffffffff1614610b6b576040517f08c379a0000000000000000000000000000000000000000000000000000000008152600401610b6290611154565b60405180910390fd5b60006002811115610b7f57610b7e610d6f565b5b60008054906101000a900460ff166002811115610b9f57610b9e610d6f565b5b14610bdf576040517f08c379a0000000000000000000000000000000000000000000000000000000008152600401610bd690611648565b60405180910390fd5b600060018054905011610c27576040517f08c379a0000000000000000000000000000000000000000000000000000000008152600401610c1e9061122c565b60405180910390fd5b60016000806101000a81548160ff02191690836002811115610c4c57610c4b610d6f565b5b02179055507fc475c26aa25ed8e85a7faa790e5f63b5d7ee1025f12821f4c9bfddd36ab4d11260405160405180910390a1565b60038181548110610c8f57600080fd5b9060005260206000209060020201600091509050806000018054610cb290611321565b80601f0160208091040260200160405190810160405280929190818152602001828054610cde90611321565b8015610d2b5780601f10610d0057610100808354040283529160200191610d2b565b820191906000526020600020905b815481529060010190602001808311610d0e57829003601f168201915b5050505050908060010154905082565b6000819050919050565b610d4e81610d3b565b82525050565b6000602082019050610d696000830184610d45565b92915050565b7f4e487b7100000000000000000000000000000000000000000000000000000000600052602160045260246000fd5b60038110610daf57610dae610d6f565b5b50565b6000819050610dc082610d9e565b919050565b6000610dd082610db2565b9050919050565b610de081610dc5565b82525050565b6000602082019050610dfb6000830184610dd7565b92915050565b6000604051905090565b600080fd5b600080fd5b610e1e81610d3b565b8114610e2957600080fd5b50565b600081359050610e3b81610e15565b92915050565b600060208284031215610e5757610e56610e0b565b5b6000610e6584828501610e2c565b91505092915050565b600081519050919050565b600082825260208201905092915050565b60005b83811015610ea8578082015181840152602081019050610e8d565b60008484015250505050565b6000601f19601f8301169050919050565b6000610ed082610e6e565b610eda8185610e79565b9350610eea818560208601610e8a565b610ef381610eb4565b840191505092915050565b60006040820190508181036000830152610f188185610ec5565b9050610f276020830184610d45565b9392505050565b600080fd5b600080fd5b7f4e487b7100000000000000000000000000000000000000000000000000000000600052604160045260246000fd5b610f7082610eb4565b810181811067ffffffffffffffff82111715610f8f57610f8e610f38565b5b80604052505050565b6000610fa2610e01565b9050610fae8282610f67565b919050565b600067ffffffffffffffff821115610fce57610fcd610f38565b5b610fd782610eb4565b9050602081019050919050565b82818337600083830152505050565b600061100661100184610fb3565b610f98565b90508281526020810184848401111561102257611021610f33565b5b61102d848285610fe4565b509392505050565b600082601f83011261104a57611049610f2e565b5b813561105a848260208601610ff3565b91505092915050565b60006020828403121561107957611078610e0b565b5b600082013567ffffffffffffffff81111561109757611096610e10565b5b6110a384828501611035565b91505092915050565b600080604083850312156110c3576110c2610e0b565b5b60006110d185828601610e2c565b925050602083013567ffffffffffffffff8111156110f2576110f1610e10565b5b6110fe85828601611035565b9150509250929050565b7f4f6e6c79206368616972706572736f6e2063616e20646f20746861742e000000600082015250565b600061113e601d83610e79565b915061114982611108565b602082019050919050565b6000602082019050818103600083015261116d81611131565b9050919050565b7f456c656374696f6e206e6f7420696e2072756e6e696e672073746174652e0000600082015250565b60006111aa601e83610e79565b91506111b582611174565b602082019050919050565b600060208201905081810360008301526111d98161119d565b9050919050565b7f546865726520617265206e6f2063616e646964617465732e0000000000000000600082015250565b6000611216601883610e79565b9150611221826111e0565b602082019050919050565b6000602082019050818103600083015261124581611209565b9050919050565b7f4e487b7100000000000000000000000000000000000000000000000000000000600052603260045260246000fd5b7f4e487b7100000000000000000000000000000000000000000000000000000000600052601160045260246000fd5b60006112b582610d3b565b91507fffffffffffffffffffffffffffffffffffffffffffffffffffffffffffffffff82036112e7576112e661127b565b5b600182019050919050565b7f4e487b7100000000000000000000000000000000000000000000000000000000600052602260045260246000fd5b6000600282049050600182168061133957607f821691505b60208210810361134c5761134b6112f2565b5b50919050565b60008154905061136181611321565b9050919050565b60008190508160005260206000209050919050565b60006020601f8301049050919050565b600082821b905092915050565b6000600883026113ca7fffffffffffffffffffffffffffffffffffffffffffffffffffffffffffffffff8261138d565b6113d4868361138d565b95508019841693508086168417925050509392505050565b6000819050919050565b600061141161140c61140784610d3b565b6113ec565b610d3b565b9050919050565b6000819050919050565b61142b836113f6565b61143f61143782611418565b84845461139a565b825550505050565b600090565b611454611447565b61145f818484611422565b505050565b5b818110156114835761147860008261144c565b600181019050611465565b5050565b601f8211156114c85761149981611368565b6114a28461137d565b810160208510156114b1578190505b6114c56114bd8561137d565b830182611464565b50505b505050565b600082821c905092915050565b60006114eb600019846008026114cd565b1980831691505092915050565b600061150483836114da565b9150826002028217905092915050565b8181036115225750506115fa565b61152b82611352565b67ffffffffffffffff81111561154457611543610f38565b5b61154e8254611321565b611559828285611487565b6000601f8311600181146115885760008415611576578287015490505b61158085826114f8565b8655506115f3565b601f19841661159687611368565b96506115a186611368565b60005b828110156115c9578489015482556001820191506001850194506020810190506115a4565b868310156115e657848901546115e2601f8916826114da565b8355505b6001600288020188555050505b5050505050505b565b7f456c656374696f6e206e6f7420696e2070656e64696e672073746174652e0000600082015250565b6000611632601e83610e79565b915061163d826115fc565b602082019050919050565b6000602082019050818103600083015261166181611625565b9050919050565b600081905092915050565b600061167e82610e6e565b6116888185611668565b9350611698818560208601610e8a565b80840191505092915050565b60006116b08284611673565b915081905092915050565b7f43616e64696461746520616c726561647920616464656420746f20746865206560008201527f6c656374696f6e2e000000000000000000000000000000000000000000000000602082015250565b6000611717602883610e79565b9150611722826116bb565b604082019050919050565b600060208201905081810360008301526117468161170a565b9050919050565b61175682610e6e565b67ffffffffffffffff81111561176f5761176e610f38565b5b6117798254611321565b611784828285611487565b600060209050601f8311600181146117b757600084156117a5578287015190505b6117af85826114f8565b865550611817565b601f1984166117c586611368565b60005b828110156117ed578489015182556001820191506020850194506020810190506117c8565b8683101561180a5784890151611806601f8916826114da565b8355505b6001600288020188555050505b505050505050565b7f43616e64696461746520696e64657820696e76616c69642e0000000000000000600082015250565b6000611855601883610e79565b91506118608261181f565b602082019050919050565b6000602082019050818103600083015261188481611848565b9050919050565b7f566f746572206861732070726576696f75736c7920766f74656420696e20746860008201527f697320656c656374696f6e2e0000000000000000000000000000000000000000602082015250565b60006118e7602c83610e79565b91506118f28261188b565b604082019050919050565b60006020820190508181036000830152611916816118da565b905091905056fea2646970667358221220ba8ea883303b2a3c70e5dad5612fc97394e291ba5483a1d22560fa0c6398bbbb64736f6c63430008120033",
  "immutableReferences": {
    "126": [
      {
        "length": 32,
        "start": 407
      },
      {
        "length": 32,
        "start": 1344
      },
      {
        "length": 32,
        "start": 2783
      }
    ]
  },
  "source": "// SPDX-License-Identifier: MIT\npragma solidity ^0.8.0;\n\n//enum of possible election statuses\nenum Status {PENDING, RUNNING, FINISHED }\n\n//struct of the Candidate details\nstruct Candidate{\n    string name;\n    uint voteCount;\n}\n\ncontract ElectoralPoll{\n    \n    Status public status; // status of the election\n    address immutable chairperson; // account address of chairperson that can interact\n\n    Candidate[] public candidates; //array of the candidates for the election\n    mapping(string=>bool) candidateBoolMapper; //bool mapper used to check existence of a candidate\n    Candidate[] public winners;\n\n    mapping(address=>bool) voterAddressBoolMapper; //bool mapper for checking voter account address checking\n    mapping(string=>bool) voterAadhaarBoolMapper; //bool mapper for checking voter aadhaar checking\n\n    modifier newVoterOnly(string memory _aadhaar){\n        require(!voterAddressBoolMapper[msg.sender] && !voterAadhaarBoolMapper[_aadhaar], \"Voter has previously voted in this election.\");\n        _;\n    }\n\n    modifier newCandidateOnly(string memory _name){\n        require(!candidateBoolMapper[_name], \"Candidate already added to the election.\");\n        _;\n    }\n    \n    modifier isChairperson{\n        require (msg.sender==chairperson, \"Only chairperson can do that.\");\n        _;\n    }\n\n    modifier electionIsPending{\n        require(status==Status.PENDING, \"Election not in pending state.\");\n        _;\n    }\n    modifier electionIsRunning{\n        require(status==Status.RUNNING, \"Election not in running state.\");\n        _;\n    }\n    modifier electionIsStopped{\n        require(status==Status.FINISHED, \"Election not finished yet.\");\n        _;\n    }\n\n    function startElection() public isChairperson electionIsPending candidatesNotEmpty{\n        status = Status.RUNNING;\n        emit ElectionStarted();\n    }\n\n    function stopElection() public isChairperson electionIsRunning candidatesNotEmpty(){\n        status = Status.FINISHED;\n        uint maxVotes = 0;\n        for(uint i=0; i<candidates.length; i++){\n            if(candidates[i].voteCount > maxVotes){\n                maxVotes = candidates[i].voteCount;\n            }\n        }\n        for(uint i=0; i<candidates.length; i++){\n            if(candidates[i].voteCount == maxVotes){\n                winners.push(candidates[i]);\n            }\n        }\n        emit ElectionEnded(winners.length);\n    }\n\n    function addCandidate(string memory _name) public isChairperson electionIsPending newCandidateOnly(_name){\n        Candidate memory c = Candidate({name: _name, voteCount: 0});\n        candidates.push(c);\n        candidateBoolMapper[_name] = true;\n    }\n\n    modifier candidateIndexInBound(uint i){\n        require(i<candidates.length && i>=0, \"Candidate index invalid.\");\n        _;\n    }\n\n    modifier candidatesNotEmpty{\n        require(candidates.length > 0, \"There are no candidates.\");\n        _;\n    }\n\n    function delegateVote(uint _index, string memory _aadhaar) public candidateIndexInBound(_index) electionIsRunning newVoterOnly(_aadhaar){\n        voterAadhaarBoolMapper[_aadhaar] = true;\n        voterAddressBoolMapper[msg.sender] = true;\n        Candidate memory c = candidates[_index];\n        c.voteCount++;\n        candidates[_index] = c;\n        emit Voted(c.name, c.voteCount);\n    }\n\n    function getCandidatesLength() public view returns(uint){\n        return candidates.length;\n    }\n\n    // write winner candidate array and when election stopped then populate with winners\n\n\n\n    constructor(address _chairperson){\n        chairperson = _chairperson;\n        status = Status.PENDING;\n    }\n\n    event ElectionStarted();\n    event ElectionEnded(uint winnerCount);\n    event Voted(string name, uint newCount);\n}\n\n\n// write getter functions for candidate and winners..",
  "sourcePath": "/home/manav/Blockchain Lab/blockchain-project-group-1/truffle/contracts/ElectoralPoll.sol",
  "compiler": {
    "name": "solc",
    "version": "0.8.18+commit.87f61d96.Emscripten.clang"
  },
  "schemaVersion": "3.4.16",
  "updatedAt": "2024-02-25T17:32:05.524Z",
  "devdoc": {
    "kind": "dev",
    "methods": {},
    "version": 1
  },
  "userdoc": {
    "kind": "user",
    "methods": {},
    "version": 1
  }
}